{
  "_format": "hh-sol-artifact-1",
  "contractName": "DataRegistryImplementation",
  "sourceName": "contracts/dao/DataRegistryImplementation.sol",
  "abi": [
    {
      "inputs": [],
      "stateMutability": "nonpayable",
      "type": "constructor"
    },
    {
      "inputs": [],
      "name": "FileNotFound",
      "type": "error"
    },
    {
      "inputs": [],
      "name": "FileUrlAlreadyUsed",
      "type": "error"
    },
    {
      "inputs": [],
      "name": "InvalidUrl",
      "type": "error"
    },
    {
      "inputs": [],
      "name": "NoPermission",
      "type": "error"
    },
    {
      "inputs": [],
      "name": "NotFileOwner",
      "type": "error"
    },
    {
      "anonymous": false,
      "inputs": [
        {
          "indexed": false,
          "internalType": "address",
          "name": "previousAdmin",
          "type": "address"
        },
        {
          "indexed": false,
          "internalType": "address",
          "name": "newAdmin",
          "type": "address"
        }
      ],
      "name": "AdminChanged",
      "type": "event"
    },
    {
      "anonymous": false,
      "inputs": [
        {
          "indexed": true,
          "internalType": "address",
          "name": "beacon",
          "type": "address"
        }
      ],
      "name": "BeaconUpgraded",
      "type": "event"
    },
    {
      "anonymous": false,
      "inputs": [
        {
          "indexed": true,
          "internalType": "uint256",
          "name": "fileId",
          "type": "uint256"
        },
        {
          "indexed": true,
          "internalType": "address",
          "name": "ownerAddress",
          "type": "address"
        },
        {
          "indexed": false,
          "internalType": "string",
          "name": "url",
          "type": "string"
        }
      ],
      "name": "FileAdded",
      "type": "event"
    },
    {
      "anonymous": false,
      "inputs": [
        {
          "indexed": false,
          "internalType": "uint8",
          "name": "version",
          "type": "uint8"
        }
      ],
      "name": "Initialized",
      "type": "event"
    },
    {
      "anonymous": false,
      "inputs": [
        {
          "indexed": false,
          "internalType": "address",
          "name": "account",
          "type": "address"
        }
      ],
      "name": "Paused",
      "type": "event"
    },
    {
      "anonymous": false,
      "inputs": [
        {
          "indexed": true,
          "internalType": "uint256",
          "name": "fileId",
          "type": "uint256"
        },
        {
          "indexed": true,
          "internalType": "address",
          "name": "account",
          "type": "address"
        }
      ],
      "name": "PermissionGranted",
      "type": "event"
    },
    {
      "anonymous": false,
      "inputs": [
        {
          "indexed": true,
          "internalType": "uint256",
          "name": "fileId",
          "type": "uint256"
        },
        {
          "indexed": true,
          "internalType": "address",
          "name": "ownerAddress",
          "type": "address"
        },
        {
          "indexed": false,
          "internalType": "uint256",
          "name": "proofIndex",
          "type": "uint256"
        },
        {
          "indexed": true,
          "internalType": "uint256",
          "name": "dlpId",
          "type": "uint256"
        },
        {
          "indexed": false,
          "internalType": "uint256",
          "name": "score",
          "type": "uint256"
        },
        {
          "indexed": false,
          "internalType": "string",
          "name": "proofUrl",
          "type": "string"
        }
      ],
      "name": "ProofAdded",
      "type": "event"
    },
    {
      "anonymous": false,
      "inputs": [
        {
          "indexed": true,
          "internalType": "bytes32",
          "name": "role",
          "type": "bytes32"
        },
        {
          "indexed": true,
          "internalType": "bytes32",
          "name": "previousAdminRole",
          "type": "bytes32"
        },
        {
          "indexed": true,
          "internalType": "bytes32",
          "name": "newAdminRole",
          "type": "bytes32"
        }
      ],
      "name": "RoleAdminChanged",
      "type": "event"
    },
    {
      "anonymous": false,
      "inputs": [
        {
          "indexed": true,
          "internalType": "bytes32",
          "name": "role",
          "type": "bytes32"
        },
        {
          "indexed": true,
          "internalType": "address",
          "name": "account",
          "type": "address"
        },
        {
          "indexed": true,
          "internalType": "address",
          "name": "sender",
          "type": "address"
        }
      ],
      "name": "RoleGranted",
      "type": "event"
    },
    {
      "anonymous": false,
      "inputs": [
        {
          "indexed": true,
          "internalType": "bytes32",
          "name": "role",
          "type": "bytes32"
        },
        {
          "indexed": true,
          "internalType": "address",
          "name": "account",
          "type": "address"
        },
        {
          "indexed": true,
          "internalType": "address",
          "name": "sender",
          "type": "address"
        }
      ],
      "name": "RoleRevoked",
      "type": "event"
    },
    {
      "anonymous": false,
      "inputs": [
        {
          "indexed": false,
          "internalType": "address",
          "name": "account",
          "type": "address"
        }
      ],
      "name": "Unpaused",
      "type": "event"
    },
    {
      "anonymous": false,
      "inputs": [
        {
          "indexed": true,
          "internalType": "address",
          "name": "implementation",
          "type": "address"
        }
      ],
      "name": "Upgraded",
      "type": "event"
    },
    {
      "inputs": [],
      "name": "DEFAULT_ADMIN_ROLE",
      "outputs": [
        {
          "internalType": "bytes32",
          "name": "",
          "type": "bytes32"
        }
      ],
      "stateMutability": "view",
      "type": "function"
    },
    {
      "inputs": [],
      "name": "MAINTAINER_ROLE",
      "outputs": [
        {
          "internalType": "bytes32",
          "name": "",
          "type": "bytes32"
        }
      ],
      "stateMutability": "view",
      "type": "function"
    },
    {
      "inputs": [
        {
          "internalType": "string",
          "name": "url",
          "type": "string"
        }
      ],
      "name": "addFile",
      "outputs": [
        {
          "internalType": "uint256",
          "name": "",
          "type": "uint256"
        }
      ],
      "stateMutability": "nonpayable",
      "type": "function"
    },
    {
      "inputs": [
        {
          "internalType": "uint256",
          "name": "fileId",
          "type": "uint256"
        },
        {
          "internalType": "address",
          "name": "account",
          "type": "address"
        },
        {
          "internalType": "string",
          "name": "key",
          "type": "string"
        }
      ],
      "name": "addFilePermission",
      "outputs": [],
      "stateMutability": "nonpayable",
      "type": "function"
    },
    {
      "inputs": [
        {
          "internalType": "string",
          "name": "url",
          "type": "string"
        },
        {
          "internalType": "address",
          "name": "ownerAddress",
          "type": "address"
        },
        {
          "components": [
            {
              "internalType": "address",
              "name": "account",
              "type": "address"
            },
            {
              "internalType": "string",
              "name": "key",
              "type": "string"
            }
          ],
          "internalType": "struct IDataRegistry.Permission[]",
          "name": "permissions",
          "type": "tuple[]"
        }
      ],
      "name": "addFileWithPermissions",
      "outputs": [
        {
          "internalType": "uint256",
          "name": "",
          "type": "uint256"
        }
      ],
      "stateMutability": "nonpayable",
      "type": "function"
    },
    {
      "inputs": [
        {
          "internalType": "uint256",
          "name": "fileId",
          "type": "uint256"
        },
        {
          "components": [
            {
              "internalType": "bytes",
              "name": "signature",
              "type": "bytes"
            },
            {
              "components": [
                {
                  "internalType": "uint256",
                  "name": "score",
                  "type": "uint256"
                },
                {
                  "internalType": "uint256",
                  "name": "dlpId",
                  "type": "uint256"
                },
                {
                  "internalType": "string",
                  "name": "metadata",
                  "type": "string"
                },
                {
                  "internalType": "string",
                  "name": "proofUrl",
                  "type": "string"
                },
                {
                  "internalType": "string",
                  "name": "instruction",
                  "type": "string"
                }
              ],
              "internalType": "struct IDataRegistry.ProofData",
              "name": "data",
              "type": "tuple"
            }
          ],
          "internalType": "struct IDataRegistry.Proof",
          "name": "proof",
          "type": "tuple"
        }
      ],
      "name": "addProof",
      "outputs": [],
      "stateMutability": "nonpayable",
      "type": "function"
    },
    {
      "inputs": [],
      "name": "dataLiquidityPool",
      "outputs": [
        {
          "internalType": "contract IDataLiquidityPool",
          "name": "",
          "type": "address"
        }
      ],
      "stateMutability": "view",
      "type": "function"
    },
    {
      "inputs": [
        {
          "internalType": "string",
          "name": "url",
          "type": "string"
        }
      ],
      "name": "fileIdByUrl",
      "outputs": [
        {
          "internalType": "uint256",
          "name": "",
          "type": "uint256"
        }
      ],
      "stateMutability": "view",
      "type": "function"
    },
    {
      "inputs": [
        {
          "internalType": "uint256",
          "name": "fileId",
          "type": "uint256"
        },
        {
          "internalType": "address",
          "name": "account",
          "type": "address"
        }
      ],
      "name": "filePermissions",
      "outputs": [
        {
          "internalType": "string",
          "name": "",
          "type": "string"
        }
      ],
      "stateMutability": "view",
      "type": "function"
    },
    {
      "inputs": [
        {
          "internalType": "uint256",
          "name": "fileId",
          "type": "uint256"
        },
        {
          "internalType": "uint256",
          "name": "index",
          "type": "uint256"
        }
      ],
      "name": "fileProofs",
      "outputs": [
        {
          "components": [
            {
              "internalType": "bytes",
              "name": "signature",
              "type": "bytes"
            },
            {
              "components": [
                {
                  "internalType": "uint256",
                  "name": "score",
                  "type": "uint256"
                },
                {
                  "internalType": "uint256",
                  "name": "dlpId",
                  "type": "uint256"
                },
                {
                  "internalType": "string",
                  "name": "metadata",
                  "type": "string"
                },
                {
                  "internalType": "string",
                  "name": "proofUrl",
                  "type": "string"
                },
                {
                  "internalType": "string",
                  "name": "instruction",
                  "type": "string"
                }
              ],
              "internalType": "struct IDataRegistry.ProofData",
              "name": "data",
              "type": "tuple"
            }
          ],
          "internalType": "struct IDataRegistry.Proof",
          "name": "",
          "type": "tuple"
        }
      ],
      "stateMutability": "view",
      "type": "function"
    },
    {
      "inputs": [
        {
          "internalType": "uint256",
          "name": "fileId",
          "type": "uint256"
        }
      ],
      "name": "files",
      "outputs": [
        {
          "components": [
            {
              "internalType": "uint256",
              "name": "id",
              "type": "uint256"
            },
            {
              "internalType": "address",
              "name": "ownerAddress",
              "type": "address"
            },
            {
              "internalType": "string",
              "name": "url",
              "type": "string"
            },
            {
              "internalType": "uint256",
              "name": "addedAtBlock",
              "type": "uint256"
            }
          ],
          "internalType": "struct IDataRegistry.FileResponse",
          "name": "",
          "type": "tuple"
        }
      ],
      "stateMutability": "view",
      "type": "function"
    },
    {
      "inputs": [],
      "name": "filesCount",
      "outputs": [
        {
          "internalType": "uint256",
          "name": "",
          "type": "uint256"
        }
      ],
      "stateMutability": "view",
      "type": "function"
    },
    {
      "inputs": [
        {
          "internalType": "bytes32",
          "name": "role",
          "type": "bytes32"
        }
      ],
      "name": "getRoleAdmin",
      "outputs": [
        {
          "internalType": "bytes32",
          "name": "",
          "type": "bytes32"
        }
      ],
      "stateMutability": "view",
      "type": "function"
    },
    {
      "inputs": [
        {
          "internalType": "bytes32",
          "name": "role",
          "type": "bytes32"
        },
        {
          "internalType": "address",
          "name": "account",
          "type": "address"
        }
      ],
      "name": "grantRole",
      "outputs": [],
      "stateMutability": "nonpayable",
      "type": "function"
    },
    {
      "inputs": [
        {
          "internalType": "bytes32",
          "name": "role",
          "type": "bytes32"
        },
        {
          "internalType": "address",
          "name": "account",
          "type": "address"
        }
      ],
      "name": "hasRole",
      "outputs": [
        {
          "internalType": "bool",
          "name": "",
          "type": "bool"
        }
      ],
      "stateMutability": "view",
      "type": "function"
    },
    {
      "inputs": [
        {
          "internalType": "address",
          "name": "trustedForwarderAddress",
          "type": "address"
        },
        {
          "internalType": "address",
          "name": "ownerAddress",
          "type": "address"
        },
        {
          "internalType": "address",
          "name": "dataLiquidityPoolAddress",
          "type": "address"
        }
      ],
      "name": "initialize",
      "outputs": [],
      "stateMutability": "nonpayable",
      "type": "function"
    },
    {
      "inputs": [
        {
          "internalType": "address",
          "name": "forwarder",
          "type": "address"
        }
      ],
      "name": "isTrustedForwarder",
      "outputs": [
        {
          "internalType": "bool",
          "name": "",
          "type": "bool"
        }
      ],
      "stateMutability": "view",
      "type": "function"
    },
    {
      "inputs": [
        {
          "internalType": "bytes[]",
          "name": "data",
          "type": "bytes[]"
        }
      ],
      "name": "multicall",
      "outputs": [
        {
          "internalType": "bytes[]",
          "name": "results",
          "type": "bytes[]"
        }
      ],
      "stateMutability": "nonpayable",
      "type": "function"
    },
    {
      "inputs": [],
      "name": "pause",
      "outputs": [],
      "stateMutability": "nonpayable",
      "type": "function"
    },
    {
      "inputs": [],
      "name": "paused",
      "outputs": [
        {
          "internalType": "bool",
          "name": "",
          "type": "bool"
        }
      ],
      "stateMutability": "view",
      "type": "function"
    },
    {
      "inputs": [],
      "name": "proxiableUUID",
      "outputs": [
        {
          "internalType": "bytes32",
          "name": "",
          "type": "bytes32"
        }
      ],
      "stateMutability": "view",
      "type": "function"
    },
    {
      "inputs": [
        {
          "internalType": "bytes32",
          "name": "role",
          "type": "bytes32"
        },
        {
          "internalType": "address",
          "name": "account",
          "type": "address"
        }
      ],
      "name": "renounceRole",
      "outputs": [],
      "stateMutability": "nonpayable",
      "type": "function"
    },
    {
      "inputs": [
        {
          "internalType": "bytes32",
          "name": "role",
          "type": "bytes32"
        },
        {
          "internalType": "address",
          "name": "account",
          "type": "address"
        }
      ],
      "name": "revokeRole",
      "outputs": [],
      "stateMutability": "nonpayable",
      "type": "function"
    },
    {
      "inputs": [
        {
          "internalType": "bytes32",
          "name": "role",
          "type": "bytes32"
        },
        {
          "internalType": "bytes32",
          "name": "adminRole",
          "type": "bytes32"
        }
      ],
      "name": "setRoleAdmin",
      "outputs": [],
      "stateMutability": "nonpayable",
      "type": "function"
    },
    {
      "inputs": [
        {
          "internalType": "bytes4",
          "name": "interfaceId",
          "type": "bytes4"
        }
      ],
      "name": "supportsInterface",
      "outputs": [
        {
          "internalType": "bool",
          "name": "",
          "type": "bool"
        }
      ],
      "stateMutability": "view",
      "type": "function"
    },
    {
      "inputs": [],
      "name": "trustedForwarder",
      "outputs": [
        {
          "internalType": "address",
          "name": "",
          "type": "address"
        }
      ],
      "stateMutability": "view",
      "type": "function"
    },
    {
      "inputs": [],
      "name": "unpause",
      "outputs": [],
      "stateMutability": "nonpayable",
      "type": "function"
    },
    {
      "inputs": [
        {
          "internalType": "address",
          "name": "trustedForwarderAddress",
          "type": "address"
        }
      ],
      "name": "updateTrustedForwarder",
      "outputs": [],
      "stateMutability": "nonpayable",
      "type": "function"
    },
    {
      "inputs": [
        {
          "internalType": "address",
          "name": "newImplementation",
          "type": "address"
        }
      ],
      "name": "upgradeTo",
      "outputs": [],
      "stateMutability": "nonpayable",
      "type": "function"
    },
    {
      "inputs": [
        {
          "internalType": "address",
          "name": "newImplementation",
          "type": "address"
        },
        {
          "internalType": "bytes",
          "name": "data",
          "type": "bytes"
        }
      ],
      "name": "upgradeToAndCall",
      "outputs": [],
      "stateMutability": "payable",
      "type": "function"
    },
    {
      "inputs": [],
      "name": "version",
      "outputs": [
        {
          "internalType": "uint256",
          "name": "",
          "type": "uint256"
        }
      ],
      "stateMutability": "pure",
      "type": "function"
    }
  ],
  "bytecode": "0x60c0604052306080523480156200001557600080fd5b50600060a052620000256200002b565b620000ec565b600054610100900460ff1615620000985760405162461bcd60e51b815260206004820152602760248201527f496e697469616c697a61626c653a20636f6e747261637420697320696e697469604482015266616c697a696e6760c81b606482015260840160405180910390fd5b60005460ff90811614620000ea576000805460ff191660ff9081179091556040519081527f7f26b83ff96e1f2b6a682f133852f6798a09c465da95921460cefb38474024989060200160405180910390a15b565b60805160a051612c0462000135600039600081816103400152611b1301526000818161072701528181610767015281816108270152818161086701526108f60152612c046000f3fe6080604052600436106101d85760003560e01c806391d1485411610102578063dbda68db11610095578063f4fb9e4711610064578063f4fb9e4714610591578063f75cf867146105b1578063f8742254146105d1578063f90b0311146105f357600080fd5b8063dbda68db14610500578063dfb5e9ba1461052d578063eb9b9b6414610544578063f4c714b41461056457600080fd5b8063c0c53b8b116100d1578063c0c53b8b1461047f578063c26045f71461049f578063d547741f146104bf578063d5bdf5b5146104df57600080fd5b806391d14854146103fd578063a217fddf1461041d578063ac9650d814610432578063afbfc1561461045f57600080fd5b80634f1ef2861161017a5780635c975abb116101495780635c975abb1461037057806360f1c43a146103885780637da0a877146103b55780638456cb59146103e857600080fd5b80634f1ef286146102e757806352d1902d146102fa57806354fd4d501461030f578063572b6c051461032357600080fd5b80632f2ff15d116101b65780632f2ff15d1461027257806336568abe146102925780633659cfe6146102b25780633f4ba83a146102d257600080fd5b806301ffc9a7146101dd5780631e4e009114610212578063248a9ca314610234575b600080fd5b3480156101e957600080fd5b506101fd6101f83660046120a4565b610613565b60405190151581526020015b60405180910390f35b34801561021e57600080fd5b5061023261022d3660046120ce565b61064a565b005b34801561024057600080fd5b5061026461024f3660046120f0565b600090815260fb602052604090206001015490565b604051908152602001610209565b34801561027e57600080fd5b5061023261028d366004612120565b610664565b34801561029e57600080fd5b506102326102ad366004612120565b610689565b3480156102be57600080fd5b506102326102cd36600461214c565b61071c565b3480156102de57600080fd5b506102326107fc565b6102326102f5366004612266565b61081c565b34801561030657600080fd5b506102646108e9565b34801561031b57600080fd5b506002610264565b34801561032f57600080fd5b506101fd61033e36600461214c565b7f00000000000000000000000000000000000000000000000000000000000000006001600160a01b0390811691161490565b34801561037c57600080fd5b5060975460ff166101fd565b34801561039457600080fd5b506103a86103a3366004612120565b61099c565b604051610209919061230b565b3480156103c157600080fd5b50610191546001600160a01b03165b6040516001600160a01b039091168152602001610209565b3480156103f457600080fd5b50610232610a57565b34801561040957600080fd5b506101fd610418366004612120565b610a77565b34801561042957600080fd5b50610264600081565b34801561043e57600080fd5b5061045261044d36600461231e565b610aa2565b6040516102099190612392565b34801561046b57600080fd5b5061026461047a3660046123f4565b610c0b565b34801561048b57600080fd5b5061023261049a36600461252e565b610d27565b3480156104ab57600080fd5b506102326104ba366004612571565b610ebf565b3480156104cb57600080fd5b506102326104da366004612120565b611006565b3480156104eb57600080fd5b50610195546103d0906001600160a01b031681565b34801561050c57600080fd5b5061052061051b3660046120ce565b61102b565b6040516102099190612697565b34801561053957600080fd5b506102646101925481565b34801561055057600080fd5b5061026461055f366004612722565b6112d0565b34801561057057600080fd5b5061058461057f3660046120f0565b6112f0565b6040516102099190612756565b34801561059d57600080fd5b506102646105ac366004612722565b6113fb565b3480156105bd57600080fd5b506102326105cc3660046127a4565b61143f565b3480156105dd57600080fd5b50610264600080516020612baf83398151915281565b3480156105ff57600080fd5b5061023261060e36600461214c565b6114ff565b60006001600160e01b03198216637965db0b60e01b148061064457506301ffc9a760e01b6001600160e01b03198316145b92915050565b60006106558161153b565b61065f8383611545565b505050565b600082815260fb602052604090206001015461067f8161153b565b61065f8383611590565b610691611617565b6001600160a01b0316816001600160a01b03161461070e5760405162461bcd60e51b815260206004820152602f60248201527f416363657373436f6e74726f6c3a2063616e206f6e6c792072656e6f756e636560448201526e103937b632b9903337b91039b2b63360891b60648201526084015b60405180910390fd5b6107188282611626565b5050565b306001600160a01b037f00000000000000000000000000000000000000000000000000000000000000001614156107655760405162461bcd60e51b8152600401610705906127fa565b7f00000000000000000000000000000000000000000000000000000000000000006001600160a01b03166107ae600080516020612b68833981519152546001600160a01b031690565b6001600160a01b0316146107d45760405162461bcd60e51b815260040161070590612846565b6107dd816116ab565b604080516000808252602082019092526107f9918391906116b6565b50565b600080516020612baf8339815191526108148161153b565b6107f9611821565b306001600160a01b037f00000000000000000000000000000000000000000000000000000000000000001614156108655760405162461bcd60e51b8152600401610705906127fa565b7f00000000000000000000000000000000000000000000000000000000000000006001600160a01b03166108ae600080516020612b68833981519152546001600160a01b031690565b6001600160a01b0316146108d45760405162461bcd60e51b815260040161070590612846565b6108dd826116ab565b610718828260016116b6565b6000306001600160a01b037f000000000000000000000000000000000000000000000000000000000000000016146109895760405162461bcd60e51b815260206004820152603860248201527f555550535570677261646561626c653a206d757374206e6f742062652063616c60448201527f6c6564207468726f7567682064656c656761746563616c6c00000000000000006064820152608401610705565b50600080516020612b6883398151915290565b6000828152610193602090815260408083206001600160a01b038516845260050190915290208054606091906109d190612892565b80601f01602080910402602001604051908101604052809291908181526020018280546109fd90612892565b8015610a4a5780601f10610a1f57610100808354040283529160200191610a4a565b820191906000526020600020905b815481529060010190602001808311610a2d57829003601f168201915b5050505050905092915050565b600080516020612baf833981519152610a6f8161153b565b6107f9611879565b600091825260fb602090815260408084206001600160a01b0393909316845291905290205460ff1690565b60606000610aae611617565b6001600160a01b0316336001600160a01b031614610b1957600036610ad46014826128e3565b610adf9282906128fa565b8080601f016020809104026020016040519081016040528093929190818152602001838380828437600092019190915250610b2992505050565b6040805160008152602081019091525b9050826001600160401b03811115610b4357610b43612167565b604051908082528060200260200182016040528015610b7657816020015b6060815260200190600190039081610b615790505b50915060005b83811015610c0357610bd330868684818110610b9a57610b9a612924565b9050602002810190610bac919061293a565b85604051602001610bbf93929190612987565b6040516020818303038152906040526118b7565b838281518110610be557610be5612924565b60200260200101819052508080610bfb906129ae565b915050610b7c565b505092915050565b6000610c156118e3565b6000610c21858561192b565b905060005b8351811015610d1e57838181518110610c4157610c41612924565b60200260200101516020015161019360008481526020019081526020016000206005016000868481518110610c7857610c78612924565b6020026020010151600001516001600160a01b03166001600160a01b031681526020019081526020016000209080519060200190610cb7929190611fc2565b50838181518110610cca57610cca612924565b6020026020010151600001516001600160a01b0316827f6e0403ef2b13328247bf9260ad8dd9c18fb5a18b95ea25de817ca991da05929b60405160405180910390a380610d16816129ae565b915050610c26565b50949350505050565b600054610100900460ff1615808015610d475750600054600160ff909116105b80610d615750303b158015610d61575060005460ff166001145b610dc45760405162461bcd60e51b815260206004820152602e60248201527f496e697469616c697a61626c653a20636f6e747261637420697320616c72656160448201526d191e481a5b9a5d1a585b1a5e995960921b6064820152608401610705565b6000805460ff191660011790558015610de7576000805461ff0019166101001790555b610def611a54565b610df7611a54565b610dff611a7b565b61019180546001600160a01b0319166001600160a01b038616179055610e34600080516020612baf8339815191526000611545565b610e3f600084611590565b610e57600080516020612baf83398151915284611590565b61019580546001600160a01b0319166001600160a01b0384161790558015610eb9576000805461ff0019169055604051600181527f7f26b83ff96e1f2b6a682f133852f6798a09c465da95921460cefb38474024989060200160405180910390a15b50505050565b610ec76118e3565b60008281526101936020526040812060030180548290610ee6906129ae565b918290555060008481526101936020908152604080832084845260040182529091208451805193945085939192610f2292849290910190611fc2565b506020828101518051600184019081558183015160028501556040820151805192939192610f569260038701920190611fc2565b5060608201518051610f72916003840191602090910190611fc2565b5060808201518051610f8e916004840191602090910190611fc2565b505050602080850180518201516000888152610193909352604092839020549151805160609091015193519195506001600160a01b03909216935087927fef448dca1e95226d5af380d5817c753c86946ef53cffb238e5fbe889230565c792610ff9928892906129c9565b60405180910390a4505050565b600082815260fb60205260409020600101546110218161153b565b61065f8383611626565b611033612046565b60008381526101936020908152604080832085845260040190915290819020815180830190925280548290829061106990612892565b80601f016020809104026020016040519081016040528092919081815260200182805461109590612892565b80156110e25780601f106110b7576101008083540402835291602001916110e2565b820191906000526020600020905b8154815290600101906020018083116110c557829003601f168201915b50505050508152602001600182016040518060a0016040529081600082015481526020016001820154815260200160028201805461111f90612892565b80601f016020809104026020016040519081016040528092919081815260200182805461114b90612892565b80156111985780601f1061116d57610100808354040283529160200191611198565b820191906000526020600020905b81548152906001019060200180831161117b57829003601f168201915b505050505081526020016003820180546111b190612892565b80601f01602080910402602001604051908101604052809291908181526020018280546111dd90612892565b801561122a5780601f106111ff5761010080835404028352916020019161122a565b820191906000526020600020905b81548152906001019060200180831161120d57829003601f168201915b5050505050815260200160048201805461124390612892565b80601f016020809104026020016040519081016040528092919081815260200182805461126f90612892565b80156112bc5780601f10611291576101008083540402835291602001916112bc565b820191906000526020600020905b81548152906001019060200180831161129f57829003601f168201915b505050919092525050509052509392505050565b60006112da6118e3565b610644826112e6611617565b61192b565b919050565b61132460405180608001604052806000815260200160006001600160a01b0316815260200160608152602001600081525090565b60008281526101936020908152604091829020825160808101845285815281546001600160a01b031692810192909252600181018054919383019161136890612892565b80601f016020809104026020016040519081016040528092919081815260200182805461139490612892565b80156113e15780601f106113b6576101008083540402835291602001916113e1565b820191906000526020600020905b8154815290600101906020018083116113c457829003601f168201915b505050505081526020018260020154815250915050919050565b600061019460008360405160200161141391906129f1565b604051602081830303815290604052805190602001208152602001908152602001600020549050919050565b6114476118e3565b600083815261019360205260409020546001600160a01b0316611468611617565b6001600160a01b03161461148f5760405163abea322960e01b815260040160405180910390fd5b6000838152610193602090815260408083206001600160a01b0386168452600501825290912082516114c392840190611fc2565b506040516001600160a01b0383169084907f6e0403ef2b13328247bf9260ad8dd9c18fb5a18b95ea25de817ca991da05929b90600090a3505050565b600080516020612baf8339815191526115178161153b565b5061019180546001600160a01b0319166001600160a01b0392909216919091179055565b6107f98133611aaa565b600082815260fb6020526040808220600101805490849055905190918391839186917fbd79b86ffe0ab8e8776151514217cd7cacd52c909f66475c3af44e129f0b00ff9190a4505050565b61159a8282610a77565b61071857600082815260fb602090815260408083206001600160a01b03851684529091529020805460ff191660011790556115d3611617565b6001600160a01b0316816001600160a01b0316837f2f8788117e7eff1d82e926ec794901d17c78024a50270940304540a733656f0d60405160405180910390a45050565b6000611621611b03565b905090565b6116308282610a77565b1561071857600082815260fb602090815260408083206001600160a01b03851684529091529020805460ff19169055611667611617565b6001600160a01b0316816001600160a01b0316837ff6391f5c32d9c69d2a47ea670b442974b53935d1edc7fd64eb21e047a839171b60405160405180910390a45050565b60006107188161153b565b7f4910fdfa16fed3260ed0e7147f7cc6da11a60208b5b9406d12a635614ffd91435460ff16156116e95761065f83611b78565b826001600160a01b03166352d1902d6040518163ffffffff1660e01b8152600401602060405180830381865afa925050508015611743575060408051601f3d908101601f1916820190925261174091810190612a0d565b60015b6117a65760405162461bcd60e51b815260206004820152602e60248201527f45524331393637557067726164653a206e657720696d706c656d656e7461746960448201526d6f6e206973206e6f74205555505360901b6064820152608401610705565b600080516020612b6883398151915281146118155760405162461bcd60e51b815260206004820152602960248201527f45524331393637557067726164653a20756e737570706f727465642070726f786044820152681a58589b195555525160ba1b6064820152608401610705565b5061065f838383611c14565b611829611c39565b6097805460ff191690557f5db9ee0a495bf2e6ff9c91a7834c1ba4fdd244a5e8aa4e537bd38aeae4b073aa61185c611617565b6040516001600160a01b03909116815260200160405180910390a1565b6118816118e3565b6097805460ff191660011790557f62e78cea01bee320cd4e420270b5ea74000d11b0c9f74754ebdbfc544b05a25861185c611617565b60606118dc8383604051806060016040528060278152602001612b8860279139611c82565b9392505050565b60975460ff16156119295760405162461bcd60e51b815260206004820152601060248201526f14185d5cd8589b194e881c185d5cd95960821b6044820152606401610705565b565b6000806101926000815461193e906129ae565b919050819055905060008460405160200161195991906129f1565b60408051601f1981840301815291815281516020928301206000818152610194909352912054909150156119a057604051638611445560e01b815260040160405180910390fd5b60008281526101936020908152604090912080546001600160a01b0319166001600160a01b03871617815586516119df92600190920191880190611fc2565b506000828152610193602090815260408083204360029091015583835261019490915290819020839055516001600160a01b0385169083907f2980b13036c0d9df6b71ea9e9c09536efd24d7dd1868e29aa730f0c3fbd1a0dc90611a4490899061230b565b60405180910390a3509392505050565b600054610100900460ff166119295760405162461bcd60e51b815260040161070590612a26565b600054610100900460ff16611aa25760405162461bcd60e51b815260040161070590612a26565b611929611cfa565b611ab48282610a77565b61071857611ac181611d2d565b611acc836020611d3f565b604051602001611add929190612a71565b60408051601f198184030181529082905262461bcd60e51b82526107059160040161230b565b6000366014336001600160a01b037f000000000000000000000000000000000000000000000000000000000000000016148015611b405750808210155b15611b7057600036611b5283856128e3565b611b5d9282906128fa565b611b6691612ae6565b60601c9250505090565b339250505090565b6001600160a01b0381163b611be55760405162461bcd60e51b815260206004820152602d60248201527f455243313936373a206e657720696d706c656d656e746174696f6e206973206e60448201526c1bdd08184818dbdb9d1c9858dd609a1b6064820152608401610705565b600080516020612b6883398151915280546001600160a01b0319166001600160a01b0392909216919091179055565b611c1d83611eda565b600082511180611c2a5750805b1561065f57610eb983836118b7565b60975460ff166119295760405162461bcd60e51b815260206004820152601460248201527314185d5cd8589b194e881b9bdd081c185d5cd95960621b6044820152606401610705565b6060600080856001600160a01b031685604051611c9f91906129f1565b600060405180830381855af49150503d8060008114611cda576040519150601f19603f3d011682016040523d82523d6000602084013e611cdf565b606091505b5091509150611cf086838387611f1a565b9695505050505050565b600054610100900460ff16611d215760405162461bcd60e51b815260040161070590612a26565b6097805460ff19169055565b60606106446001600160a01b03831660145b60606000611d4e836002612b19565b611d59906002612b38565b6001600160401b03811115611d7057611d70612167565b6040519080825280601f01601f191660200182016040528015611d9a576020820181803683370190505b509050600360fc1b81600081518110611db557611db5612924565b60200101906001600160f81b031916908160001a905350600f60fb1b81600181518110611de457611de4612924565b60200101906001600160f81b031916908160001a9053506000611e08846002612b19565b611e13906001612b38565b90505b6001811115611e8b576f181899199a1a9b1b9c1cb0b131b232b360811b85600f1660108110611e4757611e47612924565b1a60f81b828281518110611e5d57611e5d612924565b60200101906001600160f81b031916908160001a90535060049490941c93611e8481612b50565b9050611e16565b5083156118dc5760405162461bcd60e51b815260206004820181905260248201527f537472696e67733a20686578206c656e67746820696e73756666696369656e746044820152606401610705565b611ee381611b78565b6040516001600160a01b038216907fbc7cd75a20ee27fd9adebab32041f755214dbc6bffa90cc0225b39da2e5c2d3b90600090a250565b60608315611f86578251611f7f576001600160a01b0385163b611f7f5760405162461bcd60e51b815260206004820152601d60248201527f416464726573733a2063616c6c20746f206e6f6e2d636f6e74726163740000006044820152606401610705565b5081611f90565b611f908383611f98565b949350505050565b815115611fa85781518083602001fd5b8060405162461bcd60e51b8152600401610705919061230b565b828054611fce90612892565b90600052602060002090601f016020900481019282611ff05760008555612036565b82601f1061200957805160ff1916838001178555612036565b82800160010185558215612036579182015b8281111561203657825182559160200191906001019061201b565b5061204292915061208f565b5090565b60405180604001604052806060815260200161208a6040518060a0016040528060008152602001600081526020016060815260200160608152602001606081525090565b905290565b5b808211156120425760008155600101612090565b6000602082840312156120b657600080fd5b81356001600160e01b0319811681146118dc57600080fd5b600080604083850312156120e157600080fd5b50508035926020909101359150565b60006020828403121561210257600080fd5b5035919050565b80356001600160a01b03811681146112eb57600080fd5b6000806040838503121561213357600080fd5b8235915061214360208401612109565b90509250929050565b60006020828403121561215e57600080fd5b6118dc82612109565b634e487b7160e01b600052604160045260246000fd5b604080519081016001600160401b038111828210171561219f5761219f612167565b60405290565b60405160a081016001600160401b038111828210171561219f5761219f612167565b604051601f8201601f191681016001600160401b03811182821017156121ef576121ef612167565b604052919050565b600082601f83011261220857600080fd5b81356001600160401b0381111561222157612221612167565b612234601f8201601f19166020016121c7565b81815284602083860101111561224957600080fd5b816020850160208301376000918101602001919091529392505050565b6000806040838503121561227957600080fd5b61228283612109565b915060208301356001600160401b0381111561229d57600080fd5b6122a9858286016121f7565b9150509250929050565b60005b838110156122ce5781810151838201526020016122b6565b83811115610eb95750506000910152565b600081518084526122f78160208601602086016122b3565b601f01601f19169290920160200192915050565b6020815260006118dc60208301846122df565b6000806020838503121561233157600080fd5b82356001600160401b038082111561234857600080fd5b818501915085601f83011261235c57600080fd5b81358181111561236b57600080fd5b8660208260051b850101111561238057600080fd5b60209290920196919550909350505050565b6000602080830181845280855180835260408601915060408160051b870101925083870160005b828110156123e757603f198886030184526123d58583516122df565b945092850192908501906001016123b9565b5092979650505050505050565b60008060006060848603121561240957600080fd5b83356001600160401b038082111561242057600080fd5b61242c878388016121f7565b94506020915061243d828701612109565b935060408601358181111561245157600080fd5b8601601f8101881361246257600080fd5b80358281111561247457612474612167565b8060051b6124838582016121c7565b918252828101850191858101908b84111561249d57600080fd5b86850192505b8383101561251d578235868111156124bb5760008081fd5b85016040818e03601f190112156124d25760008081fd5b6124da61217d565b6124e5898301612109565b81526040820135888111156124fa5760008081fd5b6125088f8b838601016121f7565b828b01525083525091860191908601906124a3565b809750505050505050509250925092565b60008060006060848603121561254357600080fd5b61254c84612109565b925061255a60208501612109565b915061256860408501612109565b90509250925092565b6000806040838503121561258457600080fd5b8235915060208301356001600160401b03808211156125a257600080fd5b90840190604082870312156125b657600080fd5b6125be61217d565b8235828111156125cd57600080fd5b6125d9888286016121f7565b8252506020830135828111156125ee57600080fd5b929092019160a0838803121561260357600080fd5b61260b6121a5565b833581526020840135602082015260408401358381111561262b57600080fd5b612637898287016121f7565b60408301525060608401358381111561264f57600080fd5b61265b898287016121f7565b60608301525060808401358381111561267357600080fd5b61267f898287016121f7565b60808301525060208201529396939550929350505050565b6020815260008251604060208401526126b360608401826122df565b90506020840151601f198483030160408501528051825260208101516020830152604081015160a060408401526126ed60a08401826122df565b90506060820151838203606085015261270682826122df565b915050608082015191508281036080840152611cf081836122df565b60006020828403121561273457600080fd5b81356001600160401b0381111561274a57600080fd5b611f90848285016121f7565b602081528151602082015260018060a01b036020830151166040820152600060408301516080606084015261278e60a08401826122df565b9050606084015160808401528091505092915050565b6000806000606084860312156127b957600080fd5b833592506127c960208501612109565b915060408401356001600160401b038111156127e457600080fd5b6127f0868287016121f7565b9150509250925092565b6020808252602c908201527f46756e6374696f6e206d7573742062652063616c6c6564207468726f7567682060408201526b19195b1959d85d1958d85b1b60a21b606082015260800190565b6020808252602c908201527f46756e6374696f6e206d7573742062652063616c6c6564207468726f7567682060408201526b6163746976652070726f787960a01b606082015260800190565b600181811c908216806128a657607f821691505b602082108114156128c757634e487b7160e01b600052602260045260246000fd5b50919050565b634e487b7160e01b600052601160045260246000fd5b6000828210156128f5576128f56128cd565b500390565b6000808585111561290a57600080fd5b8386111561291757600080fd5b5050820193919092039150565b634e487b7160e01b600052603260045260246000fd5b6000808335601e1984360301811261295157600080fd5b8301803591506001600160401b0382111561296b57600080fd5b60200191503681900382131561298057600080fd5b9250929050565b8284823760008382016000815283516129a48183602088016122b3565b0195945050505050565b60006000198214156129c2576129c26128cd565b5060010190565b8381528260208201526060604082015260006129e860608301846122df565b95945050505050565b60008251612a038184602087016122b3565b9190910192915050565b600060208284031215612a1f57600080fd5b5051919050565b6020808252602b908201527f496e697469616c697a61626c653a20636f6e7472616374206973206e6f74206960408201526a6e697469616c697a696e6760a81b606082015260800190565b7f416363657373436f6e74726f6c3a206163636f756e7420000000000000000000815260008351612aa98160178501602088016122b3565b7001034b99036b4b9b9b4b733903937b6329607d1b6017918401918201528351612ada8160288401602088016122b3565b01602801949350505050565b6bffffffffffffffffffffffff198135818116916014851015610c035760149490940360031b84901b1690921692915050565b6000816000190483118215151615612b3357612b336128cd565b500290565b60008219821115612b4b57612b4b6128cd565b500190565b600081612b5f57612b5f6128cd565b50600019019056fe360894a13ba1a3210667c828492db98dca3e2076cc3735a920a3ca505d382bbc416464726573733a206c6f772d6c6576656c2064656c65676174652063616c6c206661696c6564339759585899103d2ace64958e37e18ccb0504652c81d4a1b8aa80fe2126ab95a2646970667358221220d07820dccc37e408e81a20a88660a3e193757d6355faae27f4cac2343e2ae59d64736f6c634300080c0033",
  "linkReferences": {},
  "deployedLinkReferences": {}
}