{
  "_format": "hh-sol-artifact-1",
  "contractName": "DataDAO",
  "sourceName": "contracts/dao/DataDAO.sol",
  "abi": [
    {
      "inputs": [],
      "stateMutability": "nonpayable",
      "type": "constructor"
    },
    {
      "inputs": [],
      "name": "DatasetNFTAlreadyExists",
      "type": "error"
    },
    {
      "inputs": [],
      "name": "DatasetNFTNotFound",
      "type": "error"
    },
    {
      "inputs": [],
      "name": "InvalidDatasetId",
      "type": "error"
    },
    {
      "inputs": [],
      "name": "NotAuthorizedMinter",
      "type": "error"
    },
    {
      "inputs": [],
      "name": "OceanProtocolError",
      "type": "error"
    },
    {
      "anonymous": false,
      "inputs": [
        {
          "indexed": false,
          "internalType": "address",
          "name": "previousAdmin",
          "type": "address"
        },
        {
          "indexed": false,
          "internalType": "address",
          "name": "newAdmin",
          "type": "address"
        }
      ],
      "name": "AdminChanged",
      "type": "event"
    },
    {
      "anonymous": false,
      "inputs": [
        {
          "indexed": true,
          "internalType": "address",
          "name": "beacon",
          "type": "address"
        }
      ],
      "name": "BeaconUpgraded",
      "type": "event"
    },
    {
      "anonymous": false,
      "inputs": [
        {
          "indexed": true,
          "internalType": "uint256",
          "name": "datasetId",
          "type": "uint256"
        },
        {
          "indexed": true,
          "internalType": "address",
          "name": "nftContract",
          "type": "address"
        },
        {
          "indexed": false,
          "internalType": "uint256",
          "name": "tokenId",
          "type": "uint256"
        },
        {
          "indexed": false,
          "internalType": "uint256",
          "name": "contributionCount",
          "type": "uint256"
        }
      ],
      "name": "DatasetNFTMinted",
      "type": "event"
    },
    {
      "anonymous": false,
      "inputs": [
        {
          "indexed": false,
          "internalType": "uint8",
          "name": "version",
          "type": "uint8"
        }
      ],
      "name": "Initialized",
      "type": "event"
    },
    {
      "anonymous": false,
      "inputs": [
        {
          "indexed": true,
          "internalType": "address",
          "name": "minter",
          "type": "address"
        }
      ],
      "name": "MinterAuthorized",
      "type": "event"
    },
    {
      "anonymous": false,
      "inputs": [
        {
          "indexed": true,
          "internalType": "address",
          "name": "minter",
          "type": "address"
        }
      ],
      "name": "MinterRevoked",
      "type": "event"
    },
    {
      "anonymous": false,
      "inputs": [
        {
          "indexed": true,
          "internalType": "uint256",
          "name": "datasetId",
          "type": "uint256"
        },
        {
          "indexed": false,
          "internalType": "string",
          "name": "newMetadataURI",
          "type": "string"
        }
      ],
      "name": "NFTMetadataUpdated",
      "type": "event"
    },
    {
      "anonymous": false,
      "inputs": [
        {
          "indexed": false,
          "internalType": "address",
          "name": "account",
          "type": "address"
        }
      ],
      "name": "Paused",
      "type": "event"
    },
    {
      "anonymous": false,
      "inputs": [
        {
          "indexed": true,
          "internalType": "bytes32",
          "name": "role",
          "type": "bytes32"
        },
        {
          "indexed": true,
          "internalType": "bytes32",
          "name": "previousAdminRole",
          "type": "bytes32"
        },
        {
          "indexed": true,
          "internalType": "bytes32",
          "name": "newAdminRole",
          "type": "bytes32"
        }
      ],
      "name": "RoleAdminChanged",
      "type": "event"
    },
    {
      "anonymous": false,
      "inputs": [
        {
          "indexed": true,
          "internalType": "bytes32",
          "name": "role",
          "type": "bytes32"
        },
        {
          "indexed": true,
          "internalType": "address",
          "name": "account",
          "type": "address"
        },
        {
          "indexed": true,
          "internalType": "address",
          "name": "sender",
          "type": "address"
        }
      ],
      "name": "RoleGranted",
      "type": "event"
    },
    {
      "anonymous": false,
      "inputs": [
        {
          "indexed": true,
          "internalType": "bytes32",
          "name": "role",
          "type": "bytes32"
        },
        {
          "indexed": true,
          "internalType": "address",
          "name": "account",
          "type": "address"
        },
        {
          "indexed": true,
          "internalType": "address",
          "name": "sender",
          "type": "address"
        }
      ],
      "name": "RoleRevoked",
      "type": "event"
    },
    {
      "anonymous": false,
      "inputs": [
        {
          "indexed": false,
          "internalType": "address",
          "name": "account",
          "type": "address"
        }
      ],
      "name": "Unpaused",
      "type": "event"
    },
    {
      "anonymous": false,
      "inputs": [
        {
          "indexed": true,
          "internalType": "address",
          "name": "implementation",
          "type": "address"
        }
      ],
      "name": "Upgraded",
      "type": "event"
    },
    {
      "inputs": [],
      "name": "DEFAULT_ADMIN_ROLE",
      "outputs": [
        {
          "internalType": "bytes32",
          "name": "",
          "type": "bytes32"
        }
      ],
      "stateMutability": "view",
      "type": "function"
    },
    {
      "inputs": [],
      "name": "MAINTAINER_ROLE",
      "outputs": [
        {
          "internalType": "bytes32",
          "name": "",
          "type": "bytes32"
        }
      ],
      "stateMutability": "view",
      "type": "function"
    },
    {
      "inputs": [],
      "name": "MINTER_ROLE",
      "outputs": [
        {
          "internalType": "bytes32",
          "name": "",
          "type": "bytes32"
        }
      ],
      "stateMutability": "view",
      "type": "function"
    },
    {
      "inputs": [
        {
          "internalType": "address",
          "name": "minter",
          "type": "address"
        }
      ],
      "name": "authorizeMinter",
      "outputs": [],
      "stateMutability": "nonpayable",
      "type": "function"
    },
    {
      "inputs": [
        {
          "internalType": "address",
          "name": "",
          "type": "address"
        }
      ],
      "name": "authorizedMinters",
      "outputs": [
        {
          "internalType": "bool",
          "name": "",
          "type": "bool"
        }
      ],
      "stateMutability": "view",
      "type": "function"
    },
    {
      "inputs": [
        {
          "internalType": "uint256",
          "name": "",
          "type": "uint256"
        }
      ],
      "name": "datasetNFTs",
      "outputs": [
        {
          "internalType": "uint256",
          "name": "datasetId",
          "type": "uint256"
        },
        {
          "internalType": "address",
          "name": "nftContract",
          "type": "address"
        },
        {
          "internalType": "uint256",
          "name": "tokenId",
          "type": "uint256"
        },
        {
          "internalType": "string",
          "name": "metadataURI",
          "type": "string"
        },
        {
          "internalType": "uint256",
          "name": "contributionCount",
          "type": "uint256"
        },
        {
          "internalType": "uint256",
          "name": "mintedAt",
          "type": "uint256"
        },
        {
          "internalType": "bool",
          "name": "active",
          "type": "bool"
        }
      ],
      "stateMutability": "view",
      "type": "function"
    },
    {
      "inputs": [
        {
          "internalType": "uint256",
          "name": "datasetId",
          "type": "uint256"
        }
      ],
      "name": "getDatasetNFT",
      "outputs": [
        {
          "components": [
            {
              "internalType": "uint256",
              "name": "datasetId",
              "type": "uint256"
            },
            {
              "internalType": "address",
              "name": "nftContract",
              "type": "address"
            },
            {
              "internalType": "uint256",
              "name": "tokenId",
              "type": "uint256"
            },
            {
              "internalType": "string",
              "name": "metadataURI",
              "type": "string"
            },
            {
              "internalType": "uint256",
              "name": "contributionCount",
              "type": "uint256"
            },
            {
              "internalType": "uint256",
              "name": "mintedAt",
              "type": "uint256"
            },
            {
              "internalType": "bool",
              "name": "active",
              "type": "bool"
            }
          ],
          "internalType": "struct DataDAO.DatasetNFT",
          "name": "",
          "type": "tuple"
        }
      ],
      "stateMutability": "view",
      "type": "function"
    },
    {
      "inputs": [
        {
          "internalType": "bytes32",
          "name": "role",
          "type": "bytes32"
        }
      ],
      "name": "getRoleAdmin",
      "outputs": [
        {
          "internalType": "bytes32",
          "name": "",
          "type": "bytes32"
        }
      ],
      "stateMutability": "view",
      "type": "function"
    },
    {
      "inputs": [
        {
          "internalType": "bytes32",
          "name": "role",
          "type": "bytes32"
        },
        {
          "internalType": "address",
          "name": "account",
          "type": "address"
        }
      ],
      "name": "grantRole",
      "outputs": [],
      "stateMutability": "nonpayable",
      "type": "function"
    },
    {
      "inputs": [
        {
          "internalType": "uint256",
          "name": "datasetId",
          "type": "uint256"
        }
      ],
      "name": "hasDatasetNFT",
      "outputs": [
        {
          "internalType": "bool",
          "name": "",
          "type": "bool"
        }
      ],
      "stateMutability": "view",
      "type": "function"
    },
    {
      "inputs": [
        {
          "internalType": "bytes32",
          "name": "role",
          "type": "bytes32"
        },
        {
          "internalType": "address",
          "name": "account",
          "type": "address"
        }
      ],
      "name": "hasRole",
      "outputs": [
        {
          "internalType": "bool",
          "name": "",
          "type": "bool"
        }
      ],
      "stateMutability": "view",
      "type": "function"
    },
    {
      "inputs": [
        {
          "components": [
            {
              "internalType": "address",
              "name": "trustedForwarder",
              "type": "address"
            },
            {
              "internalType": "address",
              "name": "ownerAddress",
              "type": "address"
            },
            {
              "internalType": "address",
              "name": "oceanFactory",
              "type": "address"
            },
            {
              "internalType": "address",
              "name": "oceanRouter",
              "type": "address"
            },
            {
              "internalType": "address",
              "name": "oceanToken",
              "type": "address"
            }
          ],
          "internalType": "struct DataDAO.InitParams",
          "name": "params",
          "type": "tuple"
        }
      ],
      "name": "initialize",
      "outputs": [],
      "stateMutability": "nonpayable",
      "type": "function"
    },
    {
      "inputs": [
        {
          "internalType": "address",
          "name": "forwarder",
          "type": "address"
        }
      ],
      "name": "isTrustedForwarder",
      "outputs": [
        {
          "internalType": "bool",
          "name": "",
          "type": "bool"
        }
      ],
      "stateMutability": "view",
      "type": "function"
    },
    {
      "inputs": [
        {
          "internalType": "uint256",
          "name": "datasetId",
          "type": "uint256"
        },
        {
          "internalType": "uint256",
          "name": "contributionCount",
          "type": "uint256"
        }
      ],
      "name": "mintDatasetNFT",
      "outputs": [],
      "stateMutability": "nonpayable",
      "type": "function"
    },
    {
      "inputs": [
        {
          "internalType": "bytes[]",
          "name": "data",
          "type": "bytes[]"
        }
      ],
      "name": "multicall",
      "outputs": [
        {
          "internalType": "bytes[]",
          "name": "results",
          "type": "bytes[]"
        }
      ],
      "stateMutability": "nonpayable",
      "type": "function"
    },
    {
      "inputs": [],
      "name": "nftTemplateIndex",
      "outputs": [
        {
          "internalType": "uint256",
          "name": "",
          "type": "uint256"
        }
      ],
      "stateMutability": "view",
      "type": "function"
    },
    {
      "inputs": [],
      "name": "oceanFactory",
      "outputs": [
        {
          "internalType": "contract IFactory",
          "name": "",
          "type": "address"
        }
      ],
      "stateMutability": "view",
      "type": "function"
    },
    {
      "inputs": [],
      "name": "oceanRouter",
      "outputs": [
        {
          "internalType": "address",
          "name": "",
          "type": "address"
        }
      ],
      "stateMutability": "view",
      "type": "function"
    },
    {
      "inputs": [],
      "name": "oceanToken",
      "outputs": [
        {
          "internalType": "contract IERC20",
          "name": "",
          "type": "address"
        }
      ],
      "stateMutability": "view",
      "type": "function"
    },
    {
      "inputs": [],
      "name": "pause",
      "outputs": [],
      "stateMutability": "nonpayable",
      "type": "function"
    },
    {
      "inputs": [],
      "name": "paused",
      "outputs": [
        {
          "internalType": "bool",
          "name": "",
          "type": "bool"
        }
      ],
      "stateMutability": "view",
      "type": "function"
    },
    {
      "inputs": [],
      "name": "proxiableUUID",
      "outputs": [
        {
          "internalType": "bytes32",
          "name": "",
          "type": "bytes32"
        }
      ],
      "stateMutability": "view",
      "type": "function"
    },
    {
      "inputs": [
        {
          "internalType": "bytes32",
          "name": "role",
          "type": "bytes32"
        },
        {
          "internalType": "address",
          "name": "account",
          "type": "address"
        }
      ],
      "name": "renounceRole",
      "outputs": [],
      "stateMutability": "nonpayable",
      "type": "function"
    },
    {
      "inputs": [
        {
          "internalType": "address",
          "name": "minter",
          "type": "address"
        }
      ],
      "name": "revokeMinter",
      "outputs": [],
      "stateMutability": "nonpayable",
      "type": "function"
    },
    {
      "inputs": [
        {
          "internalType": "bytes32",
          "name": "role",
          "type": "bytes32"
        },
        {
          "internalType": "address",
          "name": "account",
          "type": "address"
        }
      ],
      "name": "revokeRole",
      "outputs": [],
      "stateMutability": "nonpayable",
      "type": "function"
    },
    {
      "inputs": [
        {
          "internalType": "bytes4",
          "name": "interfaceId",
          "type": "bytes4"
        }
      ],
      "name": "supportsInterface",
      "outputs": [
        {
          "internalType": "bool",
          "name": "",
          "type": "bool"
        }
      ],
      "stateMutability": "view",
      "type": "function"
    },
    {
      "inputs": [],
      "name": "trustedForwarder",
      "outputs": [
        {
          "internalType": "address",
          "name": "",
          "type": "address"
        }
      ],
      "stateMutability": "view",
      "type": "function"
    },
    {
      "inputs": [],
      "name": "unpause",
      "outputs": [],
      "stateMutability": "nonpayable",
      "type": "function"
    },
    {
      "inputs": [
        {
          "internalType": "address",
          "name": "newImplementation",
          "type": "address"
        }
      ],
      "name": "upgradeTo",
      "outputs": [],
      "stateMutability": "nonpayable",
      "type": "function"
    },
    {
      "inputs": [
        {
          "internalType": "address",
          "name": "newImplementation",
          "type": "address"
        },
        {
          "internalType": "bytes",
          "name": "data",
          "type": "bytes"
        }
      ],
      "name": "upgradeToAndCall",
      "outputs": [],
      "stateMutability": "payable",
      "type": "function"
    },
    {
      "inputs": [],
      "name": "version",
      "outputs": [
        {
          "internalType": "uint256",
          "name": "",
          "type": "uint256"
        }
      ],
      "stateMutability": "pure",
      "type": "function"
    }
  ],
  "bytecode": "0x60c06040523060805260016101c9553480156200001b57600080fd5b50600060a0526200002b62000031565b620000f2565b600054610100900460ff16156200009e5760405162461bcd60e51b815260206004820152602760248201527f496e697469616c697a61626c653a20636f6e747261637420697320696e697469604482015266616c697a696e6760c81b606482015260840160405180910390fd5b60005460ff90811614620000f0576000805460ff191660ff9081179091556040519081527f7f26b83ff96e1f2b6a682f133852f6798a09c465da95921460cefb38474024989060200160405180910390a15b565b60805160a051612de76200013b600039600081816103cd01526118640152600081816107b7015281816107f701528181610a4c01528181610a8c0152610b1b0152612de76000f3fe6080604052600436106101d85760003560e01c8063763c587311610102578063a217fddf11610095578063cfbd488511610064578063cfbd4885146105b5578063d5391393146105d5578063d547741f146105f7578063f87422541461061757600080fd5b8063a217fddf14610521578063aa2fe91b14610536578063ac9650d814610567578063cba122251461059457600080fd5b80638822a881116100d15780638822a8811461049d5780638f656d22146104ca57806391d14854146104ea57806399a4d2dc1461050a57600080fd5b8063763c5873146104155780637983b97e146104485780637da0a877146104695780638456cb591461048857600080fd5b80633659cfe61161017a57806352d1902d1161014957806352d1902d1461038757806354fd4d501461039c578063572b6c05146103b05780635c975abb146103fd57600080fd5b80633659cfe61461031f5780633f4ba83a1461033f5780634d2f3d7e146103545780634f1ef2861461037457600080fd5b8063244bb7f0116101b6578063244bb7f014610268578063248a9ca3146102a15780632f2ff15d146102df57806336568abe146102ff57600080fd5b806301ffc9a7146101dd5780630c9848321461021257806315e8196814610234575b600080fd5b3480156101e957600080fd5b506101fd6101f8366004612220565b610639565b60405190151581526020015b60405180910390f35b34801561021e57600080fd5b5061023261022d36600461225f565b610670565b005b34801561024057600080fd5b506101fd61024f36600461227c565b60009081526101c7602052604090206006015460ff1690565b34801561027457600080fd5b506101c554610289906001600160a01b031681565b6040516001600160a01b039091168152602001610209565b3480156102ad57600080fd5b506102d16102bc36600461227c565b600090815260fb602052604090206001015490565b604051908152602001610209565b3480156102eb57600080fd5b506102326102fa366004612295565b6106ef565b34801561030b57600080fd5b5061023261031a366004612295565b610719565b34801561032b57600080fd5b5061023261033a36600461225f565b6107ac565b34801561034b57600080fd5b5061023261088c565b34801561036057600080fd5b5061023261036f3660046122c5565b6108ac565b61023261038236600461232e565b610a41565b34801561039357600080fd5b506102d1610b0e565b3480156103a857600080fd5b5060016102d1565b3480156103bc57600080fd5b506101fd6103cb36600461225f565b7f00000000000000000000000000000000000000000000000000000000000000006001600160a01b0390811691161490565b34801561040957600080fd5b5060975460ff166101fd565b34801561042157600080fd5b5061043561043036600461227c565b610bc1565b604051610209979695949392919061242e565b34801561045457600080fd5b506101c354610289906001600160a01b031681565b34801561047557600080fd5b506101c6546001600160a01b0316610289565b34801561049457600080fd5b50610232610c96565b3480156104a957600080fd5b506104bd6104b836600461227c565b610cb6565b604051610209919061247c565b3480156104d657600080fd5b506102326104e53660046124eb565b610e05565b3480156104f657600080fd5b506101fd610505366004612295565b610fee565b34801561051657600080fd5b506102d16101c95481565b34801561052d57600080fd5b506102d1600081565b34801561054257600080fd5b506101fd61055136600461225f565b6101c86020526000908152604090205460ff1681565b34801561057357600080fd5b50610587610582366004612583565b611019565b604051610209919061264d565b3480156105a057600080fd5b506101c454610289906001600160a01b031681565b3480156105c157600080fd5b506102326105d036600461225f565b611183565b3480156105e157600080fd5b506102d1600080516020612d7283398151915281565b34801561060357600080fd5b50610232610612366004612295565b6111ff565b34801561062357600080fd5b506102d1600080516020612d9283398151915281565b60006001600160e01b03198216637965db0b60e01b148061066a57506301ffc9a760e01b6001600160e01b03198316145b92915050565b600061067b81611224565b6001600160a01b03821660009081526101c860205260409020805460ff191660011790556106b7600080516020612d7283398151915283611235565b6040516001600160a01b038316907f83b05b6735acd4b85e3bded8e72c851d1a87718f81e3c8e6f0c9d9a2baa88e4690600090a25050565b600082815260fb602052604090206001015461070a81611224565b6107148383611235565b505050565b6107216112bc565b6001600160a01b0316816001600160a01b03161461079e5760405162461bcd60e51b815260206004820152602f60248201527f416363657373436f6e74726f6c3a2063616e206f6e6c792072656e6f756e636560448201526e103937b632b9903337b91039b2b63360891b60648201526084015b60405180910390fd5b6107a882826112cb565b5050565b306001600160a01b037f00000000000000000000000000000000000000000000000000000000000000001614156107f55760405162461bcd60e51b815260040161079590612660565b7f00000000000000000000000000000000000000000000000000000000000000006001600160a01b031661083e600080516020612d2b833981519152546001600160a01b031690565b6001600160a01b0316146108645760405162461bcd60e51b8152600401610795906126ac565b61086d81611350565b604080516000808252602082019092526108899183919061135b565b50565b600080516020612d928339815191526108a481611224565b6108896114c6565b6108b461151e565b6108bc611566565b600080516020612d728339815191526108d481611224565b60008381526101c7602052604090206006015460ff161561090857604051633168a73160e21b815260040160405180910390fd5b60008061091585856115c2565b915091506040518060e00160405280868152602001836001600160a01b031681526020016001815260200161094a878761167d565b81526020808201879052426040808401919091526001606093840181905260008a81526101c78452829020855181558584015191810180546001600160a01b0319166001600160a01b03909316929092179091559084015160028201559183015180516109bd9260038501920190612187565b506080820151600482015560a0820151600582015560c0909101516006909101805460ff19169115159190911790556040805160018152602081018690526001600160a01b0384169187917f1be4e2d419ab9084c1141b68652ed06cdaf6cb9afb5374bbe1c4444ed8b9500e910160405180910390a35050506107a8600161012d55565b306001600160a01b037f0000000000000000000000000000000000000000000000000000000000000000161415610a8a5760405162461bcd60e51b815260040161079590612660565b7f00000000000000000000000000000000000000000000000000000000000000006001600160a01b0316610ad3600080516020612d2b833981519152546001600160a01b031690565b6001600160a01b031614610af95760405162461bcd60e51b8152600401610795906126ac565b610b0282611350565b6107a88282600161135b565b6000306001600160a01b037f00000000000000000000000000000000000000000000000000000000000000001614610bae5760405162461bcd60e51b815260206004820152603860248201527f555550535570677261646561626c653a206d757374206e6f742062652063616c60448201527f6c6564207468726f7567682064656c656761746563616c6c00000000000000006064820152608401610795565b50600080516020612d2b83398151915290565b6101c760205260009081526040902080546001820154600283015460038401805493946001600160a01b0390931693919291610bfc906126f8565b80601f0160208091040260200160405190810160405280929190818152602001828054610c28906126f8565b8015610c755780601f10610c4a57610100808354040283529160200191610c75565b820191906000526020600020905b815481529060010190602001808311610c5857829003601f168201915b50505050600483015460058401546006909401549293909290915060ff1687565b600080516020612d92833981519152610cae81611224565b6108896116c1565b610d016040518060e001604052806000815260200160006001600160a01b03168152602001600081526020016060815260200160008152602001600081526020016000151581525090565b60008281526101c76020908152604091829020825160e0810184528154815260018201546001600160a01b031692810192909252600281015492820192909252600382018054919291606084019190610d59906126f8565b80601f0160208091040260200160405190810160405280929190818152602001828054610d85906126f8565b8015610dd25780601f10610da757610100808354040283529160200191610dd2565b820191906000526020600020905b815481529060010190602001808311610db557829003601f168201915b5050509183525050600482015460208201526005820154604082015260069091015460ff16151560609091015292915050565b600054610100900460ff1615808015610e255750600054600160ff909116105b80610e3f5750303b158015610e3f575060005460ff166001145b610ea25760405162461bcd60e51b815260206004820152602e60248201527f496e697469616c697a61626c653a20636f6e747261637420697320616c72656160448201526d191e481a5b9a5d1a585b1a5e995960921b6064820152608401610795565b6000805460ff191660011790558015610ec5576000805461ff0019166101001790555b610ecd6116ff565b610ed56116ff565b610edd611726565b610ee5611755565b81516101c680546001600160a01b039283166001600160a01b03199182161790915560408401516101c3805491841691831691909117905560608401516101c4805491841691831691909117905560808401516101c58054919093169116179055610f5f600080516020612d928339815191526000611784565b610f78600080516020612d728339815191526000611784565b610f896000801b8360200151611235565b610fa5600080516020612d928339815191528360200151611235565b80156107a8576000805461ff0019169055604051600181527f7f26b83ff96e1f2b6a682f133852f6798a09c465da95921460cefb38474024989060200160405180910390a15050565b600091825260fb602090815260408084206001600160a01b0393909316845291905290205460ff1690565b606060006110256112bc565b6001600160a01b0316336001600160a01b0316146110905760003661104b601482612749565b611056928290612760565b8080601f0160208091040260200160405190810160405280939291908181526020018383808284376000920191909152506110a092505050565b6040805160008152602081019091525b90508267ffffffffffffffff8111156110bb576110bb6122e7565b6040519080825280602002602001820160405280156110ee57816020015b60608152602001906001900390816110d95790505b50915060005b8381101561117b5761114b308686848181106111125761111261278a565b905060200281019061112491906127a0565b85604051602001611137939291906127e7565b6040516020818303038152906040526117cf565b83828151811061115d5761115d61278a565b602002602001018190525080806111739061280e565b9150506110f4565b505092915050565b600061118e81611224565b6001600160a01b03821660009081526101c860205260409020805460ff191690556111c7600080516020612d72833981519152836112cb565b6040516001600160a01b038316907f44f4322f8daa225d5f4877ad0f7d3dfba248a774396f3ca99405ed40a044fe8190600090a25050565b600082815260fb602052604090206001015461121a81611224565b61071483836112cb565b610889816112306112bc565b6117fb565b61123f8282610fee565b6107a857600082815260fb602090815260408083206001600160a01b03851684529091529020805460ff191660011790556112786112bc565b6001600160a01b0316816001600160a01b0316837f2f8788117e7eff1d82e926ec794901d17c78024a50270940304540a733656f0d60405160405180910390a45050565b60006112c6611854565b905090565b6112d58282610fee565b156107a857600082815260fb602090815260408083206001600160a01b03851684529091529020805460ff1916905561130c6112bc565b6001600160a01b0316816001600160a01b0316837ff6391f5c32d9c69d2a47ea670b442974b53935d1edc7fd64eb21e047a839171b60405160405180910390a45050565b60006107a881611224565b7f4910fdfa16fed3260ed0e7147f7cc6da11a60208b5b9406d12a635614ffd91435460ff161561138e57610714836118c9565b826001600160a01b03166352d1902d6040518163ffffffff1660e01b8152600401602060405180830381865afa9250505080156113e8575060408051601f3d908101601f191682019092526113e591810190612829565b60015b61144b5760405162461bcd60e51b815260206004820152602e60248201527f45524331393637557067726164653a206e657720696d706c656d656e7461746960448201526d6f6e206973206e6f74205555505360901b6064820152608401610795565b600080516020612d2b83398151915281146114ba5760405162461bcd60e51b815260206004820152602960248201527f45524331393637557067726164653a20756e737570706f727465642070726f786044820152681a58589b195555525160ba1b6064820152608401610795565b50610714838383611965565b6114ce611990565b6097805460ff191690557f5db9ee0a495bf2e6ff9c91a7834c1ba4fdd244a5e8aa4e537bd38aeae4b073aa6115016112bc565b6040516001600160a01b03909116815260200160405180910390a1565b60975460ff16156115645760405162461bcd60e51b815260206004820152601060248201526f14185d5cd8589b194e881c185d5cd95960821b6044820152606401610795565b565b600261012d5414156115ba5760405162461bcd60e51b815260206004820152601f60248201527f5265656e7472616e637947756172643a207265656e7472616e742063616c6c006044820152606401610795565b600261012d55565b60008060006115d185856119d9565b905060006115de86611ab8565b6101c35460405163f86b2bcf60e01b81529192506001600160a01b03169063f86b2bcf906116129085908590600401612972565b60408051808303816000875af192505050801561164c575060408051601f3d908101601f1916820190925261164991810190612a0a565b60015b611669576040516302c8ca1d60e01b815260040160405180910390fd5b9094509250611676915050565b9250929050565b606061168883611d26565b61169183611d26565b6040516020016116a2929190612a39565b604051602081830303815290604052905092915050565b600161012d55565b6116c961151e565b6097805460ff191660011790557f62e78cea01bee320cd4e420270b5ea74000d11b0c9f74754ebdbfc544b05a2586115016112bc565b600054610100900460ff166115645760405162461bcd60e51b815260040161079590612aba565b600054610100900460ff1661174d5760405162461bcd60e51b815260040161079590612aba565b611564611e2c565b600054610100900460ff1661177c5760405162461bcd60e51b815260040161079590612aba565b611564611e53565b600082815260fb6020526040808220600101805490849055905190918391839186917fbd79b86ffe0ab8e8776151514217cd7cacd52c909f66475c3af44e129f0b00ff9190a4505050565b60606117f48383604051806060016040528060278152602001612d4b60279139611e86565b9392505050565b6118058282610fee565b6107a85761181281611efe565b61181d836020611f10565b60405160200161182e929190612b05565b60408051601f198184030181529082905262461bcd60e51b825261079591600401612b7a565b6000366014336001600160a01b037f0000000000000000000000000000000000000000000000000000000000000000161480156118915750808210155b156118c1576000366118a38385612749565b6118ae928290612760565b6118b791612b8d565b60601c9250505090565b339250505090565b6001600160a01b0381163b6119365760405162461bcd60e51b815260206004820152602d60248201527f455243313936373a206e657720696d706c656d656e746174696f6e206973206e60448201526c1bdd08184818dbdb9d1c9858dd609a1b6064820152608401610795565b600080516020612d2b83398151915280546001600160a01b0319166001600160a01b0392909216919091179055565b61196e836120ac565b60008251118061197b5750805b156107145761198a83836117cf565b50505050565b60975460ff166115645760405162461bcd60e51b815260206004820152601460248201527314185d5cd8589b194e881b9bdd081c185d5cd95960621b6044820152606401610795565b611a1d6040518060c001604052806060815260200160608152602001600081526020016060815260200160001515815260200160006001600160a01b031681525090565b6000611a29848461167d565b90506000611a3685611d26565b604051602001611a469190612bc0565b60405160208183030381529060405290506000611a6286611d26565b604051602001611a729190612bf9565b60408051808303601f1901815260c08301825293825260208201939093526101c95492810192909252506060810191909152600060808201523060a08201529392505050565b611aea6040518060a0016040528060008152602001606081526020016060815260200160608152602001606081525090565b60408051600280825260608201909252600091816020015b6060815260200190600190039081611b02579050509050611b2283611d26565b604051602001611b329190612c25565b60405160208183030381529060405281600081518110611b5457611b5461278a565b6020026020010181905250611b6883611d26565b604051602001611b789190612c58565b60405160208183030381529060405281600181518110611b9a57611b9a61278a565b6020908102919091010152604080516003808252608082019092526000918160200160208202803683370190505090503081600081518110611bde57611bde61278a565b60200260200101906001600160a01b031690816001600160a01b031681525050600081600181518110611c1357611c1361278a565b60200260200101906001600160a01b031690816001600160a01b0316815250503081600281518110611c4757611c4761278a565b6001600160a01b03929092166020928302919091018201526040805160028082526060820183526000939192909183019080368337019050509050670de0b6b3a764000081600081518110611c9e57611c9e61278a565b602002602001018181525050600081600181518110611cbf57611cbf61278a565b60209081029190910181019190915260408051600080825292810190915281611cf8565b6060815260200190600190039081611ce35790505b506040805160a081018252600181526020810196909652850193909352506060830152608082015292915050565b606081611d4a5750506040805180820190915260018152600360fc1b602082015290565b8160005b8115611d745780611d5e8161280e565b9150611d6d9050600a83612c98565b9150611d4e565b60008167ffffffffffffffff811115611d8f57611d8f6122e7565b6040519080825280601f01601f191660200182016040528015611db9576020820181803683370190505b5090505b8415611e2457611dce600183612749565b9150611ddb600a86612cac565b611de6906030612cc0565b60f81b818381518110611dfb57611dfb61278a565b60200101906001600160f81b031916908160001a905350611e1d600a86612c98565b9450611dbd565b949350505050565b600054610100900460ff166116b95760405162461bcd60e51b815260040161079590612aba565b600054610100900460ff16611e7a5760405162461bcd60e51b815260040161079590612aba565b6097805460ff19169055565b6060600080856001600160a01b031685604051611ea39190612cd8565b600060405180830381855af49150503d8060008114611ede576040519150601f19603f3d011682016040523d82523d6000602084013e611ee3565b606091505b5091509150611ef4868383876120ec565b9695505050505050565b606061066a6001600160a01b03831660145b60606000611f1f836002612cf4565b611f2a906002612cc0565b67ffffffffffffffff811115611f4257611f426122e7565b6040519080825280601f01601f191660200182016040528015611f6c576020820181803683370190505b509050600360fc1b81600081518110611f8757611f8761278a565b60200101906001600160f81b031916908160001a905350600f60fb1b81600181518110611fb657611fb661278a565b60200101906001600160f81b031916908160001a9053506000611fda846002612cf4565b611fe5906001612cc0565b90505b600181111561205d576f181899199a1a9b1b9c1cb0b131b232b360811b85600f16601081106120195761201961278a565b1a60f81b82828151811061202f5761202f61278a565b60200101906001600160f81b031916908160001a90535060049490941c9361205681612d13565b9050611fe8565b5083156117f45760405162461bcd60e51b815260206004820181905260248201527f537472696e67733a20686578206c656e67746820696e73756666696369656e746044820152606401610795565b6120b5816118c9565b6040516001600160a01b038216907fbc7cd75a20ee27fd9adebab32041f755214dbc6bffa90cc0225b39da2e5c2d3b90600090a250565b60608315612158578251612151576001600160a01b0385163b6121515760405162461bcd60e51b815260206004820152601d60248201527f416464726573733a2063616c6c20746f206e6f6e2d636f6e74726163740000006044820152606401610795565b5081611e24565b611e24838381511561216d5781518083602001fd5b8060405162461bcd60e51b81526004016107959190612b7a565b828054612193906126f8565b90600052602060002090601f0160209004810192826121b557600085556121fb565b82601f106121ce57805160ff19168380011785556121fb565b828001600101855582156121fb579182015b828111156121fb5782518255916020019190600101906121e0565b5061220792915061220b565b5090565b5b80821115612207576000815560010161220c565b60006020828403121561223257600080fd5b81356001600160e01b0319811681146117f457600080fd5b6001600160a01b038116811461088957600080fd5b60006020828403121561227157600080fd5b81356117f48161224a565b60006020828403121561228e57600080fd5b5035919050565b600080604083850312156122a857600080fd5b8235915060208301356122ba8161224a565b809150509250929050565b600080604083850312156122d857600080fd5b50508035926020909101359150565b634e487b7160e01b600052604160045260246000fd5b604051601f8201601f1916810167ffffffffffffffff81118282101715612326576123266122e7565b604052919050565b6000806040838503121561234157600080fd5b823561234c8161224a565b915060208381013567ffffffffffffffff8082111561236a57600080fd5b818601915086601f83011261237e57600080fd5b813581811115612390576123906122e7565b6123a2601f8201601f191685016122fd565b915080825287848285010111156123b857600080fd5b80848401858401376000848284010152508093505050509250929050565b60005b838110156123f15781810151838201526020016123d9565b8381111561198a5750506000910152565b6000815180845261241a8160208601602086016123d6565b601f01601f19169290920160200192915050565b87815260018060a01b038716602082015285604082015260e06060820152600061245b60e0830187612402565b60808301959095525060a0810192909252151560c090910152949350505050565b602081528151602082015260018060a01b036020830151166040820152604082015160608201526000606083015160e060808401526124bf610100840182612402565b9050608084015160a084015260a084015160c084015260c0840151151560e08401528091505092915050565b600060a082840312156124fd57600080fd5b60405160a0810181811067ffffffffffffffff82111715612520576125206122e7565b604052823561252e8161224a565b8152602083013561253e8161224a565b602082015260408301356125518161224a565b604082015260608301356125648161224a565b606082015260808301356125778161224a565b60808201529392505050565b6000806020838503121561259657600080fd5b823567ffffffffffffffff808211156125ae57600080fd5b818501915085601f8301126125c257600080fd5b8135818111156125d157600080fd5b8660208260051b85010111156125e657600080fd5b60209290920196919550909350505050565b600081518084526020808501808196508360051b8101915082860160005b8581101561264057828403895261262e848351612402565b98850198935090840190600101612616565b5091979650505050505050565b6020815260006117f460208301846125f8565b6020808252602c908201527f46756e6374696f6e206d7573742062652063616c6c6564207468726f7567682060408201526b19195b1959d85d1958d85b1b60a21b606082015260800190565b6020808252602c908201527f46756e6374696f6e206d7573742062652063616c6c6564207468726f7567682060408201526b6163746976652070726f787960a01b606082015260800190565b600181811c9082168061270c57607f821691505b6020821081141561272d57634e487b7160e01b600052602260045260246000fd5b50919050565b634e487b7160e01b600052601160045260246000fd5b60008282101561275b5761275b612733565b500390565b6000808585111561277057600080fd5b8386111561277d57600080fd5b5050820193919092039150565b634e487b7160e01b600052603260045260246000fd5b6000808335601e198436030181126127b757600080fd5b83018035915067ffffffffffffffff8211156127d257600080fd5b60200191503681900382131561167657600080fd5b8284823760008382016000815283516128048183602088016123d6565b0195945050505050565b600060001982141561282257612822612733565b5060010190565b60006020828403121561283b57600080fd5b5051919050565b600081518084526020808501945080840160005b8381101561287b5781516001600160a01b031687529582019590820190600101612856565b509495945050505050565b600081518084526020808501945080840160005b8381101561287b5781518752958201959082019060010161289a565b600060a083018251845260208084015160a08287015282815180855260c08801915060c08160051b8901019450838301925060005b818110156129195760bf19898703018352612907868551612402565b955092840192918401916001016128eb565b5050505050604083015184820360408601526129358282612842565b9150506060830151848203606086015261294f8282612886565b9150506080830151848203608086015261296982826125f8565b95945050505050565b604081526000835160c0604084015261298f610100840182612402565b90506020850151603f19808584030160608601526129ad8383612402565b92506040870151608086015260608701519150808584030160a0860152506129d58282612402565b6080870151151560c086015260a08701516001600160a01b031660e086015284810360208601529150612969905081856128b6565b60008060408385031215612a1d57600080fd5b8251612a288161224a565b60208401519092506122ba8161224a565b7f68747470733a2f2f6d657461646174612e6461746164616f2e6f72672f646174815264617365742f60d81b602082015260008351612a7f8160258501602088016123d6565b6e2f636f6e747269627574696f6e732f60881b6025918401918201528351612aae8160348401602088016123d6565b01603401949350505050565b6020808252602b908201527f496e697469616c697a61626c653a20636f6e7472616374206973206e6f74206960408201526a6e697469616c697a696e6760a81b606082015260800190565b7f416363657373436f6e74726f6c3a206163636f756e7420000000000000000000815260008351612b3d8160178501602088016123d6565b7001034b99036b4b9b9b4b733903937b6329607d1b6017918401918201528351612b6e8160288401602088016123d6565b01602801949350505050565b6020815260006117f46020830184612402565b6bffffffffffffffffffffffff19813581811691601485101561117b5760149490940360031b84901b1690921692915050565b704461746144414f2044617461736574202360781b815260008251612bec8160118501602087016123d6565b9190910160110192915050565b634444414f60e01b815260008251612c188160048501602087016123d6565b9190910160040192915050565b6a02230ba30902a37b5b2b7160ad1b815260008251612c4b81600b8501602087016123d6565b91909101600b0192915050565b61111560f21b815260008251612c758160028501602087016123d6565b9190910160020192915050565b634e487b7160e01b600052601260045260246000fd5b600082612ca757612ca7612c82565b500490565b600082612cbb57612cbb612c82565b500690565b60008219821115612cd357612cd3612733565b500190565b60008251612cea8184602087016123d6565b9190910192915050565b6000816000190483118215151615612d0e57612d0e612733565b500290565b600081612d2257612d22612733565b50600019019056fe360894a13ba1a3210667c828492db98dca3e2076cc3735a920a3ca505d382bbc416464726573733a206c6f772d6c6576656c2064656c65676174652063616c6c206661696c65649f2df0fed2c77648de5860a4cc508cd0818c85b8b8a1ab4ceeef8d981c8956a6339759585899103d2ace64958e37e18ccb0504652c81d4a1b8aa80fe2126ab95a2646970667358221220421e1e5e1caf3a19172e1085b822dbb96297ea638b8139ce353d4253964629a164736f6c634300080c0033",
  "linkReferences": {},
  "deployedLinkReferences": {}
}