{
  "_format": "hh-sol-artifact-1",
  "contractName": "DataLiquidityPool",
  "sourceName": "contracts/dao/DataLiquidityPool.sol",
  "abi": [
    {
      "inputs": [],
      "stateMutability": "nonpayable",
      "type": "constructor"
    },
    {
      "inputs": [],
      "name": "FileAlreadyAdded",
      "type": "error"
    },
    {
      "inputs": [],
      "name": "InvalidAttestator",
      "type": "error"
    },
    {
      "inputs": [],
      "name": "InvalidProof",
      "type": "error"
    },
    {
      "inputs": [],
      "name": "InvalidScore",
      "type": "error"
    },
    {
      "anonymous": false,
      "inputs": [
        {
          "indexed": false,
          "internalType": "address",
          "name": "previousAdmin",
          "type": "address"
        },
        {
          "indexed": false,
          "internalType": "address",
          "name": "newAdmin",
          "type": "address"
        }
      ],
      "name": "AdminChanged",
      "type": "event"
    },
    {
      "anonymous": false,
      "inputs": [
        {
          "indexed": true,
          "internalType": "address",
          "name": "beacon",
          "type": "address"
        }
      ],
      "name": "BeaconUpgraded",
      "type": "event"
    },
    {
      "anonymous": false,
      "inputs": [
        {
          "indexed": true,
          "internalType": "uint256",
          "name": "fileId",
          "type": "uint256"
        }
      ],
      "name": "FileInvalidated",
      "type": "event"
    },
    {
      "anonymous": false,
      "inputs": [
        {
          "indexed": false,
          "internalType": "uint256",
          "name": "newFileRewardFactor",
          "type": "uint256"
        }
      ],
      "name": "FileRewardFactorUpdated",
      "type": "event"
    },
    {
      "anonymous": false,
      "inputs": [
        {
          "indexed": true,
          "internalType": "uint256",
          "name": "fileId",
          "type": "uint256"
        }
      ],
      "name": "FileValidated",
      "type": "event"
    },
    {
      "anonymous": false,
      "inputs": [
        {
          "indexed": false,
          "internalType": "uint8",
          "name": "version",
          "type": "uint8"
        }
      ],
      "name": "Initialized",
      "type": "event"
    },
    {
      "anonymous": false,
      "inputs": [
        {
          "indexed": false,
          "internalType": "address",
          "name": "account",
          "type": "address"
        }
      ],
      "name": "Paused",
      "type": "event"
    },
    {
      "anonymous": false,
      "inputs": [
        {
          "indexed": false,
          "internalType": "string",
          "name": "newProofInstruction",
          "type": "string"
        }
      ],
      "name": "ProofInstructionUpdated",
      "type": "event"
    },
    {
      "anonymous": false,
      "inputs": [
        {
          "indexed": false,
          "internalType": "string",
          "name": "newPublicKey",
          "type": "string"
        }
      ],
      "name": "PublicKeyUpdated",
      "type": "event"
    },
    {
      "anonymous": false,
      "inputs": [
        {
          "indexed": true,
          "internalType": "address",
          "name": "contributorAddress",
          "type": "address"
        },
        {
          "indexed": true,
          "internalType": "uint256",
          "name": "fileId",
          "type": "uint256"
        },
        {
          "indexed": true,
          "internalType": "uint256",
          "name": "proofIndex",
          "type": "uint256"
        },
        {
          "indexed": false,
          "internalType": "uint256",
          "name": "rewardAmount",
          "type": "uint256"
        }
      ],
      "name": "RewardRequested",
      "type": "event"
    },
    {
      "anonymous": false,
      "inputs": [
        {
          "indexed": true,
          "internalType": "bytes32",
          "name": "role",
          "type": "bytes32"
        },
        {
          "indexed": true,
          "internalType": "bytes32",
          "name": "previousAdminRole",
          "type": "bytes32"
        },
        {
          "indexed": true,
          "internalType": "bytes32",
          "name": "newAdminRole",
          "type": "bytes32"
        }
      ],
      "name": "RoleAdminChanged",
      "type": "event"
    },
    {
      "anonymous": false,
      "inputs": [
        {
          "indexed": true,
          "internalType": "bytes32",
          "name": "role",
          "type": "bytes32"
        },
        {
          "indexed": true,
          "internalType": "address",
          "name": "account",
          "type": "address"
        },
        {
          "indexed": true,
          "internalType": "address",
          "name": "sender",
          "type": "address"
        }
      ],
      "name": "RoleGranted",
      "type": "event"
    },
    {
      "anonymous": false,
      "inputs": [
        {
          "indexed": true,
          "internalType": "bytes32",
          "name": "role",
          "type": "bytes32"
        },
        {
          "indexed": true,
          "internalType": "address",
          "name": "account",
          "type": "address"
        },
        {
          "indexed": true,
          "internalType": "address",
          "name": "sender",
          "type": "address"
        }
      ],
      "name": "RoleRevoked",
      "type": "event"
    },
    {
      "anonymous": false,
      "inputs": [
        {
          "indexed": false,
          "internalType": "address",
          "name": "account",
          "type": "address"
        }
      ],
      "name": "Unpaused",
      "type": "event"
    },
    {
      "anonymous": false,
      "inputs": [
        {
          "indexed": true,
          "internalType": "address",
          "name": "implementation",
          "type": "address"
        }
      ],
      "name": "Upgraded",
      "type": "event"
    },
    {
      "inputs": [],
      "name": "DEFAULT_ADMIN_ROLE",
      "outputs": [
        {
          "internalType": "bytes32",
          "name": "",
          "type": "bytes32"
        }
      ],
      "stateMutability": "view",
      "type": "function"
    },
    {
      "inputs": [],
      "name": "MAINTAINER_ROLE",
      "outputs": [
        {
          "internalType": "bytes32",
          "name": "",
          "type": "bytes32"
        }
      ],
      "stateMutability": "view",
      "type": "function"
    },
    {
      "inputs": [
        {
          "internalType": "uint256",
          "name": "contributorsRewardAmount",
          "type": "uint256"
        }
      ],
      "name": "addRewardsForContributors",
      "outputs": [],
      "stateMutability": "nonpayable",
      "type": "function"
    },
    {
      "inputs": [
        {
          "internalType": "address",
          "name": "contributorAddress",
          "type": "address"
        },
        {
          "internalType": "uint256",
          "name": "index",
          "type": "uint256"
        }
      ],
      "name": "contributorFiles",
      "outputs": [
        {
          "components": [
            {
              "internalType": "uint256",
              "name": "fileId",
              "type": "uint256"
            },
            {
              "internalType": "uint256",
              "name": "timestamp",
              "type": "uint256"
            },
            {
              "internalType": "uint256",
              "name": "proofIndex",
              "type": "uint256"
            },
            {
              "internalType": "uint256",
              "name": "rewardAmount",
              "type": "uint256"
            }
          ],
          "internalType": "struct IDataLiquidityPool.FileResponse",
          "name": "",
          "type": "tuple"
        }
      ],
      "stateMutability": "view",
      "type": "function"
    },
    {
      "inputs": [
        {
          "internalType": "address",
          "name": "contributorAddress",
          "type": "address"
        }
      ],
      "name": "contributorInfo",
      "outputs": [
        {
          "components": [
            {
              "internalType": "address",
              "name": "contributorAddress",
              "type": "address"
            },
            {
              "internalType": "uint256",
              "name": "filesListCount",
              "type": "uint256"
            }
          ],
          "internalType": "struct IDataLiquidityPool.ContributorInfoResponse",
          "name": "",
          "type": "tuple"
        }
      ],
      "stateMutability": "view",
      "type": "function"
    },
    {
      "inputs": [
        {
          "internalType": "uint256",
          "name": "index",
          "type": "uint256"
        }
      ],
      "name": "contributors",
      "outputs": [
        {
          "components": [
            {
              "internalType": "address",
              "name": "contributorAddress",
              "type": "address"
            },
            {
              "internalType": "uint256",
              "name": "filesListCount",
              "type": "uint256"
            }
          ],
          "internalType": "struct IDataLiquidityPool.ContributorInfoResponse",
          "name": "",
          "type": "tuple"
        }
      ],
      "stateMutability": "view",
      "type": "function"
    },
    {
      "inputs": [],
      "name": "contributorsCount",
      "outputs": [
        {
          "internalType": "uint256",
          "name": "",
          "type": "uint256"
        }
      ],
      "stateMutability": "view",
      "type": "function"
    },
    {
      "inputs": [],
      "name": "dataDAO",
      "outputs": [
        {
          "internalType": "address",
          "name": "",
          "type": "address"
        }
      ],
      "stateMutability": "view",
      "type": "function"
    },
    {
      "inputs": [],
      "name": "dataRegistry",
      "outputs": [
        {
          "internalType": "contract IDataRegistry",
          "name": "",
          "type": "address"
        }
      ],
      "stateMutability": "view",
      "type": "function"
    },
    {
      "inputs": [],
      "name": "fileRewardFactor",
      "outputs": [
        {
          "internalType": "uint256",
          "name": "",
          "type": "uint256"
        }
      ],
      "stateMutability": "view",
      "type": "function"
    },
    {
      "inputs": [
        {
          "internalType": "uint256",
          "name": "fileId",
          "type": "uint256"
        }
      ],
      "name": "files",
      "outputs": [
        {
          "components": [
            {
              "internalType": "uint256",
              "name": "fileId",
              "type": "uint256"
            },
            {
              "internalType": "uint256",
              "name": "timestamp",
              "type": "uint256"
            },
            {
              "internalType": "uint256",
              "name": "proofIndex",
              "type": "uint256"
            },
            {
              "internalType": "uint256",
              "name": "rewardAmount",
              "type": "uint256"
            }
          ],
          "internalType": "struct IDataLiquidityPool.FileResponse",
          "name": "",
          "type": "tuple"
        }
      ],
      "stateMutability": "view",
      "type": "function"
    },
    {
      "inputs": [
        {
          "internalType": "uint256",
          "name": "index",
          "type": "uint256"
        }
      ],
      "name": "filesListAt",
      "outputs": [
        {
          "internalType": "uint256",
          "name": "",
          "type": "uint256"
        }
      ],
      "stateMutability": "view",
      "type": "function"
    },
    {
      "inputs": [],
      "name": "filesListCount",
      "outputs": [
        {
          "internalType": "uint256",
          "name": "",
          "type": "uint256"
        }
      ],
      "stateMutability": "view",
      "type": "function"
    },
    {
      "inputs": [
        {
          "internalType": "bytes32",
          "name": "role",
          "type": "bytes32"
        }
      ],
      "name": "getRoleAdmin",
      "outputs": [
        {
          "internalType": "bytes32",
          "name": "",
          "type": "bytes32"
        }
      ],
      "stateMutability": "view",
      "type": "function"
    },
    {
      "inputs": [
        {
          "internalType": "bytes32",
          "name": "role",
          "type": "bytes32"
        },
        {
          "internalType": "address",
          "name": "account",
          "type": "address"
        }
      ],
      "name": "grantRole",
      "outputs": [],
      "stateMutability": "nonpayable",
      "type": "function"
    },
    {
      "inputs": [
        {
          "internalType": "bytes32",
          "name": "role",
          "type": "bytes32"
        },
        {
          "internalType": "address",
          "name": "account",
          "type": "address"
        }
      ],
      "name": "hasRole",
      "outputs": [
        {
          "internalType": "bool",
          "name": "",
          "type": "bool"
        }
      ],
      "stateMutability": "view",
      "type": "function"
    },
    {
      "inputs": [
        {
          "components": [
            {
              "internalType": "address",
              "name": "trustedForwarder",
              "type": "address"
            },
            {
              "internalType": "address",
              "name": "ownerAddress",
              "type": "address"
            },
            {
              "internalType": "address",
              "name": "tokenAddress",
              "type": "address"
            },
            {
              "internalType": "address",
              "name": "dataRegistryAddress",
              "type": "address"
            },
            {
              "internalType": "address",
              "name": "dataDAOAddress",
              "type": "address"
            },
            {
              "internalType": "string",
              "name": "name",
              "type": "string"
            },
            {
              "internalType": "string",
              "name": "publicKey",
              "type": "string"
            },
            {
              "internalType": "string",
              "name": "proofInstruction",
              "type": "string"
            },
            {
              "internalType": "uint256",
              "name": "fileRewardFactor",
              "type": "uint256"
            }
          ],
          "internalType": "struct DataLiquidityPool.InitParams",
          "name": "params",
          "type": "tuple"
        }
      ],
      "name": "initialize",
      "outputs": [],
      "stateMutability": "nonpayable",
      "type": "function"
    },
    {
      "inputs": [
        {
          "internalType": "address",
          "name": "forwarder",
          "type": "address"
        }
      ],
      "name": "isTrustedForwarder",
      "outputs": [
        {
          "internalType": "bool",
          "name": "",
          "type": "bool"
        }
      ],
      "stateMutability": "view",
      "type": "function"
    },
    {
      "inputs": [
        {
          "internalType": "bytes[]",
          "name": "data",
          "type": "bytes[]"
        }
      ],
      "name": "multicall",
      "outputs": [
        {
          "internalType": "bytes[]",
          "name": "results",
          "type": "bytes[]"
        }
      ],
      "stateMutability": "nonpayable",
      "type": "function"
    },
    {
      "inputs": [],
      "name": "name",
      "outputs": [
        {
          "internalType": "string",
          "name": "",
          "type": "string"
        }
      ],
      "stateMutability": "view",
      "type": "function"
    },
    {
      "inputs": [],
      "name": "pause",
      "outputs": [],
      "stateMutability": "nonpayable",
      "type": "function"
    },
    {
      "inputs": [],
      "name": "paused",
      "outputs": [
        {
          "internalType": "bool",
          "name": "",
          "type": "bool"
        }
      ],
      "stateMutability": "view",
      "type": "function"
    },
    {
      "inputs": [],
      "name": "proofInstruction",
      "outputs": [
        {
          "internalType": "string",
          "name": "",
          "type": "string"
        }
      ],
      "stateMutability": "view",
      "type": "function"
    },
    {
      "inputs": [],
      "name": "proxiableUUID",
      "outputs": [
        {
          "internalType": "bytes32",
          "name": "",
          "type": "bytes32"
        }
      ],
      "stateMutability": "view",
      "type": "function"
    },
    {
      "inputs": [],
      "name": "publicKey",
      "outputs": [
        {
          "internalType": "string",
          "name": "",
          "type": "string"
        }
      ],
      "stateMutability": "view",
      "type": "function"
    },
    {
      "inputs": [
        {
          "internalType": "bytes32",
          "name": "role",
          "type": "bytes32"
        },
        {
          "internalType": "address",
          "name": "account",
          "type": "address"
        }
      ],
      "name": "renounceRole",
      "outputs": [],
      "stateMutability": "nonpayable",
      "type": "function"
    },
    {
      "inputs": [
        {
          "internalType": "uint256",
          "name": "fileId",
          "type": "uint256"
        },
        {
          "internalType": "uint256",
          "name": "proofIndex",
          "type": "uint256"
        }
      ],
      "name": "requestReward",
      "outputs": [],
      "stateMutability": "nonpayable",
      "type": "function"
    },
    {
      "inputs": [
        {
          "internalType": "bytes32",
          "name": "role",
          "type": "bytes32"
        },
        {
          "internalType": "address",
          "name": "account",
          "type": "address"
        }
      ],
      "name": "revokeRole",
      "outputs": [],
      "stateMutability": "nonpayable",
      "type": "function"
    },
    {
      "inputs": [
        {
          "internalType": "bytes4",
          "name": "interfaceId",
          "type": "bytes4"
        }
      ],
      "name": "supportsInterface",
      "outputs": [
        {
          "internalType": "bool",
          "name": "",
          "type": "bool"
        }
      ],
      "stateMutability": "view",
      "type": "function"
    },
    {
      "inputs": [],
      "name": "token",
      "outputs": [
        {
          "internalType": "contract IERC20",
          "name": "",
          "type": "address"
        }
      ],
      "stateMutability": "view",
      "type": "function"
    },
    {
      "inputs": [],
      "name": "totalContributorsRewardAmount",
      "outputs": [
        {
          "internalType": "uint256",
          "name": "",
          "type": "uint256"
        }
      ],
      "stateMutability": "view",
      "type": "function"
    },
    {
      "inputs": [],
      "name": "trustedForwarder",
      "outputs": [
        {
          "internalType": "address",
          "name": "",
          "type": "address"
        }
      ],
      "stateMutability": "view",
      "type": "function"
    },
    {
      "inputs": [],
      "name": "unpause",
      "outputs": [],
      "stateMutability": "nonpayable",
      "type": "function"
    },
    {
      "inputs": [
        {
          "internalType": "uint256",
          "name": "newFileRewardFactor",
          "type": "uint256"
        }
      ],
      "name": "updateFileRewardFactor",
      "outputs": [],
      "stateMutability": "nonpayable",
      "type": "function"
    },
    {
      "inputs": [
        {
          "internalType": "string",
          "name": "newProofInstruction",
          "type": "string"
        }
      ],
      "name": "updateProofInstruction",
      "outputs": [],
      "stateMutability": "nonpayable",
      "type": "function"
    },
    {
      "inputs": [
        {
          "internalType": "string",
          "name": "newPublicKey",
          "type": "string"
        }
      ],
      "name": "updatePublicKey",
      "outputs": [],
      "stateMutability": "nonpayable",
      "type": "function"
    },
    {
      "inputs": [
        {
          "internalType": "address",
          "name": "trustedForwarderAddress",
          "type": "address"
        }
      ],
      "name": "updateTrustedForwarder",
      "outputs": [],
      "stateMutability": "nonpayable",
      "type": "function"
    },
    {
      "inputs": [
        {
          "internalType": "address",
          "name": "newImplementation",
          "type": "address"
        }
      ],
      "name": "upgradeTo",
      "outputs": [],
      "stateMutability": "nonpayable",
      "type": "function"
    },
    {
      "inputs": [
        {
          "internalType": "address",
          "name": "newImplementation",
          "type": "address"
        },
        {
          "internalType": "bytes",
          "name": "data",
          "type": "bytes"
        }
      ],
      "name": "upgradeToAndCall",
      "outputs": [],
      "stateMutability": "payable",
      "type": "function"
    },
    {
      "inputs": [],
      "name": "version",
      "outputs": [
        {
          "internalType": "uint256",
          "name": "",
          "type": "uint256"
        }
      ],
      "stateMutability": "pure",
      "type": "function"
    }
  ],
  "bytecode": "0x60c0604052306080523480156200001557600080fd5b50600060a052620000256200002b565b620000ec565b600054610100900460ff1615620000985760405162461bcd60e51b815260206004820152602760248201527f496e697469616c697a61626c653a20636f6e747261637420697320696e697469604482015266616c697a696e6760c81b606482015260840160405180910390fd5b60005460ff90811614620000ea576000805460ff191660ff9081179091556040519081527f7f26b83ff96e1f2b6a682f133852f6798a09c465da95921460cefb38474024989060200160405180910390a15b565b60805160a0516133ff62000135600039600081816104de0152611c65015260008181610a3101528181610a7101528181610e1b01528181610e5b01526112d201526133ff6000f3fe60806040526004361061023b5760003560e01c80635c975abb1161012e578063ab049ffd116100ab578063e32739c81161006f578063e32739c8146106f3578063f4c714b414610714578063f874225414610734578063f90b031114610768578063fc0c546a1461078857600080fd5b8063ab049ffd14610625578063ac9650d81461063c578063b3aa4e7b14610669578063c41d3b63146106bc578063d547741f146106d357600080fd5b80637da0a877116100f25780637da0a877146105875780638456cb59146105ba57806391d14854146105cf578063a217fddf146105ef578063a39c1d6b1461060457600080fd5b80635c975abb1461050e57806363ffab31146105265780637569b3d71461053b5780637ba24aa5146105525780637ccf35a61461057257600080fd5b80633b149013116101bc5780634f1ef286116101805780634f1ef286146104655780635062bc5a1461047857806352d1902d1461049857806354fd4d50146104ad578063572b6c05146104c157600080fd5b80633b149013146103ac5780633b3cd378146103cc5780633cb5d100146103ec5780633f4ba83a146104305780634b545f3a1461044557600080fd5b80631dc6fa5e116102035780631dc6fa5e146102ee578063248a9ca31461030e5780632f2ff15d1461034c57806336568abe1461036c5780633659cfe61461038c57600080fd5b806301ffc9a71461024057806306fdde0314610275578063084a09da146102975780631201c547146102ac5780631a8bcb1d146102ce575b600080fd5b34801561024c57600080fd5b5061026061025b366004612731565b6107a9565b60405190151581526020015b60405180910390f35b34801561028157600080fd5b5061028a6107e0565b60405161026c91906127b3565b3480156102a357600080fd5b5061028a61086f565b3480156102b857600080fd5b506102cc6102c73660046127c6565b61087d565b005b3480156102da57600080fd5b506102cc6102e93660046127c6565b6108c9565b3480156102fa57600080fd5b506102cc6103093660046127df565b610912565b34801561031a57600080fd5b5061033e6103293660046127c6565b600090815260fb602052604090206001015490565b60405190815260200161026c565b34801561035857600080fd5b506102cc610367366004612875565b610969565b34801561037857600080fd5b506102cc610387366004612875565b610993565b34801561039857600080fd5b506102cc6103a73660046128a5565b610a26565b3480156103b857600080fd5b506102cc6103c73660046129fa565b610b03565b3480156103d857600080fd5b5061033e6103e73660046127c6565b610d69565b3480156103f857600080fd5b5061040c6104073660046127c6565b610d77565b6040805182516001600160a01b03168152602092830151928101929092520161026c565b34801561043c57600080fd5b506102cc610dad565b34801561045157600080fd5b5061040c6104603660046128a5565b610dc0565b6102cc610473366004612b11565b610e10565b34801561048457600080fd5b506102cc610493366004612b74565b610edd565b3480156104a457600080fd5b5061033e6112c5565b3480156104b957600080fd5b50600161033e565b3480156104cd57600080fd5b506102606104dc3660046128a5565b7f00000000000000000000000000000000000000000000000000000000000000006001600160a01b0390811691161490565b34801561051a57600080fd5b5060975460ff16610260565b34801561053257600080fd5b5061028a611378565b34801561054757600080fd5b5061033e6101cf5481565b34801561055e57600080fd5b506102cc61056d3660046127df565b611386565b34801561057e57600080fd5b5061033e6113d0565b34801561059357600080fd5b506101c3546001600160a01b03165b6040516001600160a01b03909116815260200161026c565b3480156105c657600080fd5b506102cc6113e2565b3480156105db57600080fd5b506102606105ea366004612875565b6113f5565b3480156105fb57600080fd5b5061033e600081565b34801561061057600080fd5b506101c5546105a2906001600160a01b031681565b34801561063157600080fd5b5061033e6101ca5481565b34801561064857600080fd5b5061065c610657366004612b96565b611420565b60405161026c9190612bf8565b34801561067557600080fd5b50610689610684366004612c5a565b611589565b60405161026c91908151815260208083015190820152604080830151908201526060918201519181019190915260800190565b3480156106c857600080fd5b5061033e6101c95481565b3480156106df57600080fd5b506102cc6106ee366004612875565b6115e2565b3480156106ff57600080fd5b506101cb546105a2906001600160a01b031681565b34801561072057600080fd5b5061068961072f3660046127c6565b611607565b34801561074057600080fd5b5061033e7f339759585899103d2ace64958e37e18ccb0504652c81d4a1b8aa80fe2126ab9581565b34801561077457600080fd5b506102cc6107833660046128a5565b611672565b34801561079457600080fd5b506101c6546105a2906001600160a01b031681565b60006001600160e01b03198216637965db0b60e01b14806107da57506301ffc9a760e01b6001600160e01b03198316145b92915050565b6101c480546107ee90612c86565b80601f016020809104026020016040519081016040528092919081815260200182805461081a90612c86565b80156108675780601f1061083c57610100808354040283529160200191610867565b820191906000526020600020905b81548152906001019060200180831161084a57829003601f168201915b505050505081565b6101c880546107ee90612c86565b6108856116a1565b6108a56108906116fd565b6101c6546001600160a01b0316903084611707565b806101c960008282546108b89190612cd7565b9091555050600161012d5550565b50565b60006108d481611780565b6101ca8290556040518281527f49713882dce7cebaf1e95b21d928f97374855c5adfabf73652b8230de06e4779906020015b60405180910390a15050565b600061091d81611780565b61092a6101c78484612624565b507f0ba4a7233a2cfb937aa9644f11f49345b443fe8d5ab3494a1879faa500728d3e838360405161095c929190612cef565b60405180910390a1505050565b600082815260fb602052604090206001015461098481611780565b61098e838361178a565b505050565b61099b6116fd565b6001600160a01b0316816001600160a01b031614610a185760405162461bcd60e51b815260206004820152602f60248201527f416363657373436f6e74726f6c3a2063616e206f6e6c792072656e6f756e636560448201526e103937b632b9903337b91039b2b63360891b60648201526084015b60405180910390fd5b610a228282611811565b5050565b306001600160a01b037f0000000000000000000000000000000000000000000000000000000000000000161415610a6f5760405162461bcd60e51b8152600401610a0f90612d1e565b7f00000000000000000000000000000000000000000000000000000000000000006001600160a01b0316610ab8600080516020613383833981519152546001600160a01b031690565b6001600160a01b031614610ade5760405162461bcd60e51b8152600401610a0f90612d6a565b610ae781611896565b604080516000808252602082019092526108c6918391906118a1565b600054610100900460ff1615808015610b235750600054600160ff909116105b80610b3d5750303b158015610b3d575060005460ff166001145b610ba05760405162461bcd60e51b815260206004820152602e60248201527f496e697469616c697a61626c653a20636f6e747261637420697320616c72656160448201526d191e481a5b9a5d1a585b1a5e995960921b6064820152608401610a0f565b6000805460ff191660011790558015610bc3576000805461ff0019166101001790555b610bcb611a0c565b610bd3611a0c565b610bdb611a35565b610be3611a64565b81516101c380546001600160a01b0319166001600160a01b0390921691909117905560a08201518051610c1f916101c4916020909101906126a8565b5060608201516101c580546001600160a01b039283166001600160a01b03199182161790915560408401516101c6805491909316911617905560c08201518051610c72916101c7916020909101906126a8565b5060e08201518051610c8d916101c8916020909101906126a8565b506101008201516101ca5560808201516101cb80546001600160a01b0319166001600160a01b03909216919091179055610ce87f339759585899103d2ace64958e37e18ccb0504652c81d4a1b8aa80fe2126ab956000611a93565b610cf96000801b836020015161178a565b610d277f339759585899103d2ace64958e37e18ccb0504652c81d4a1b8aa80fe2126ab95836020015161178a565b8015610a22576000805461ff0019169055604051600181527f7f26b83ff96e1f2b6a682f133852f6798a09c465da95921460cefb384740249890602001610906565b60006107da6101cd83611ade565b604080518082019091526000808252602082015260008281526101d060205260409020546107da906001600160a01b0316610dc0565b6000610db881611780565b6108c6611aea565b60408051808201909152600080825260208201526040805180820182526001600160a01b03841680825260009081526101d160209081529290209091820190610e0890611b42565b905292915050565b306001600160a01b037f0000000000000000000000000000000000000000000000000000000000000000161415610e595760405162461bcd60e51b8152600401610a0f90612d1e565b7f00000000000000000000000000000000000000000000000000000000000000006001600160a01b0316610ea2600080516020613383833981519152546001600160a01b031690565b6001600160a01b031614610ec85760405162461bcd60e51b8152600401610a0f90612d6a565b610ed182611896565b610a22828260016118a1565b610ee5611b4c565b610eed6116a1565b6101c55460405163dbda68db60e01b815260048101849052602481018390526000916001600160a01b03169063dbda68db90604401600060405180830381865afa158015610f3f573d6000803e3d6000fd5b505050506040513d6000823e601f3d908101601f19168201604052610f679190810190612e06565b90506101c8604051610f799190612f34565b60405180910390208160200151608001518051906020012014610faf576040516309bde33960e01b815260040160405180910390fd5b60008381526101cc60205260409020600281015415610fe157604051631441154d60e31b815260040160405180910390fd5b6101c554604051633d31c52d60e21b8152600481018690526000916001600160a01b03169063f4c714b490602401600060405180830381865afa15801561102c573d6000803e3d6000fd5b505050506040513d6000823e601f3d908101601f191682016040526110549190810190612fd0565b9050670de0b6b3a764000083602001516000015111806110775750602083015151155b1561109557604051631556136560e01b815260040160405180910390fd5b60408082015160208086015180518183015182860151606084015160809094015196516000976110cf97969495939492939290910161307c565b60405160208183030381529060405280519060200120905060008160405160200161112691907f19457468657265756d205369676e6564204d6573736167653a0a3332000000008152601c810191909152603c0190565b6040516020818303038152906040528051906020012090506000611157866000015183611b9290919063ffffffff16565b428655600186018890556020870151516101ca54919250670de0b6b3a76400009161118291906130eb565b61118c919061310a565b600286015561119d6101cd89611bb6565b506020808501516001600160a01b031660009081526101d1909152604090206111c6818a611bb6565b50602085015160028701546101c6546111ea926001600160a01b0390911691611bc2565b85600201546101c96000828254611201919061312c565b90915550611210905081611b42565b60011415611266576101cf805490600061122983613143565b90915550506020858101516101cf5460009081526101d0909252604090912080546001600160a01b0319166001600160a01b039092169190911790555b878986602001516001600160a01b03167fc79b2d4186d26cf06f3e1a252e47fb477392229c39da486f16d9285961fdd9fe89600201546040516112ab91815260200190565b60405180910390a450505050505050610a22600161012d55565b6000306001600160a01b037f000000000000000000000000000000000000000000000000000000000000000016146113655760405162461bcd60e51b815260206004820152603860248201527f555550535570677261646561626c653a206d757374206e6f742062652063616c60448201527f6c6564207468726f7567682064656c656761746563616c6c00000000000000006064820152608401610a0f565b5060008051602061338383398151915290565b6101c780546107ee90612c86565b600061139181611780565b61139e6101c88484612624565b507fba416802d8f8c88a69872ea24a6897e9c3b8bdf72487c62ab999954782a87731838360405161095c929190612cef565b60006113dd6101cd611b42565b905090565b60006113ed81611780565b6108c6611bf2565b600091825260fb602090815260408084206001600160a01b0393909316845291905290205460ff1690565b6060600061142c6116fd565b6001600160a01b0316336001600160a01b0316146114975760003661145260148261312c565b61145d92829061315e565b8080601f0160208091040260200160405190810160405280939291908181526020018383808284376000920191909152506114a792505050565b6040805160008152602081019091525b9050826001600160401b038111156114c1576114c16128c2565b6040519080825280602002602001820160405280156114f457816020015b60608152602001906001900390816114df5790505b50915060005b83811015611581576115513086868481811061151857611518613188565b905060200281019061152a919061319e565b8560405160200161153d939291906131e4565b604051602081830303815290604052611c30565b83828151811061156357611563613188565b6020026020010181905250808061157990613143565b9150506114fa565b505092915050565b6115b46040518060800160405280600081526020016000815260200160008152602001600081525090565b6001600160a01b03831660009081526101d1602052604090206115db9061072f9084611ade565b9392505050565b600082815260fb60205260409020600101546115fd81611780565b61098e8383611811565b6116326040518060800160405280600081526020016000815260200160008152602001600081525090565b5060008181526101cc6020908152604091829020825160808101845293845280549184019190915260018101549183019190915260020154606082015290565b600061167d81611780565b506101c380546001600160a01b0319166001600160a01b0392909216919091179055565b600261012d5414156116f55760405162461bcd60e51b815260206004820152601f60248201527f5265656e7472616e637947756172643a207265656e7472616e742063616c6c006044820152606401610a0f565b600261012d55565b60006113dd611c55565b6040516001600160a01b03808516602483015283166044820152606481018290526117729085906323b872dd60e01b906084015b60408051601f198184030181529190526020810180516001600160e01b03166001600160e01b031990931692909217909152611cca565b50505050565b600161012d55565b6108c68133611d9f565b61179482826113f5565b610a2257600082815260fb602090815260408083206001600160a01b03851684529091529020805460ff191660011790556117cd6116fd565b6001600160a01b0316816001600160a01b0316837f2f8788117e7eff1d82e926ec794901d17c78024a50270940304540a733656f0d60405160405180910390a45050565b61181b82826113f5565b15610a2257600082815260fb602090815260408083206001600160a01b03851684529091529020805460ff191690556118526116fd565b6001600160a01b0316816001600160a01b0316837ff6391f5c32d9c69d2a47ea670b442974b53935d1edc7fd64eb21e047a839171b60405160405180910390a45050565b6000610a2281611780565b7f4910fdfa16fed3260ed0e7147f7cc6da11a60208b5b9406d12a635614ffd91435460ff16156118d45761098e83611df8565b826001600160a01b03166352d1902d6040518163ffffffff1660e01b8152600401602060405180830381865afa92505050801561192e575060408051601f3d908101601f1916820190925261192b9181019061320b565b60015b6119915760405162461bcd60e51b815260206004820152602e60248201527f45524331393637557067726164653a206e657720696d706c656d656e7461746960448201526d6f6e206973206e6f74205555505360901b6064820152608401610a0f565b6000805160206133838339815191528114611a005760405162461bcd60e51b815260206004820152602960248201527f45524331393637557067726164653a20756e737570706f727465642070726f786044820152681a58589b195555525160ba1b6064820152608401610a0f565b5061098e838383611e94565b600054610100900460ff16611a335760405162461bcd60e51b8152600401610a0f90613224565b565b600054610100900460ff16611a5c5760405162461bcd60e51b8152600401610a0f90613224565b611a33611eb9565b600054610100900460ff16611a8b5760405162461bcd60e51b8152600401610a0f90613224565b611a33611ee0565b600082815260fb6020526040808220600101805490849055905190918391839186917fbd79b86ffe0ab8e8776151514217cd7cacd52c909f66475c3af44e129f0b00ff9190a4505050565b60006115db8383611f13565b611af2611f3d565b6097805460ff191690557f5db9ee0a495bf2e6ff9c91a7834c1ba4fdd244a5e8aa4e537bd38aeae4b073aa611b256116fd565b6040516001600160a01b03909116815260200160405180910390a1565b60006107da825490565b60975460ff1615611a335760405162461bcd60e51b815260206004820152601060248201526f14185d5cd8589b194e881c185d5cd95960821b6044820152606401610a0f565b6000806000611ba18585611f86565b91509150611bae81611fcc565b509392505050565b60006115db838361211a565b6040516001600160a01b03831660248201526044810182905261098e90849063a9059cbb60e01b9060640161173b565b611bfa611b4c565b6097805460ff191660011790557f62e78cea01bee320cd4e420270b5ea74000d11b0c9f74754ebdbfc544b05a258611b256116fd565b60606115db83836040518060600160405280602781526020016133a360279139612169565b6000366014336001600160a01b037f000000000000000000000000000000000000000000000000000000000000000016148015611c925750808210155b15611cc257600036611ca4838561312c565b611caf92829061315e565b611cb89161326f565b60601c9250505090565b339250505090565b6000611d1f826040518060400160405280602081526020017f5361666545524332303a206c6f772d6c6576656c2063616c6c206661696c6564815250856001600160a01b03166121e19092919063ffffffff16565b9050805160001480611d40575080806020019051810190611d4091906132a2565b61098e5760405162461bcd60e51b815260206004820152602a60248201527f5361666545524332303a204552433230206f7065726174696f6e20646964206e6044820152691bdd081cdd58d8d9595960b21b6064820152608401610a0f565b611da982826113f5565b610a2257611db6816121f8565b611dc183602061220a565b604051602001611dd29291906132c4565b60408051601f198184030181529082905262461bcd60e51b8252610a0f916004016127b3565b6001600160a01b0381163b611e655760405162461bcd60e51b815260206004820152602d60248201527f455243313936373a206e657720696d706c656d656e746174696f6e206973206e60448201526c1bdd08184818dbdb9d1c9858dd609a1b6064820152608401610a0f565b60008051602061338383398151915280546001600160a01b0319166001600160a01b0392909216919091179055565b611e9d836123a5565b600082511180611eaa5750805b1561098e576117728383611c30565b600054610100900460ff166117785760405162461bcd60e51b8152600401610a0f90613224565b600054610100900460ff16611f075760405162461bcd60e51b8152600401610a0f90613224565b6097805460ff19169055565b6000826000018281548110611f2a57611f2a613188565b9060005260206000200154905092915050565b60975460ff16611a335760405162461bcd60e51b815260206004820152601460248201527314185d5cd8589b194e881b9bdd081c185d5cd95960621b6044820152606401610a0f565b600080825160411415611fbd5760208301516040840151606085015160001a611fb1878285856123e5565b94509450505050611fc5565b506000905060025b9250929050565b6000816004811115611fe057611fe0613339565b1415611fe95750565b6001816004811115611ffd57611ffd613339565b141561204b5760405162461bcd60e51b815260206004820152601860248201527f45434453413a20696e76616c6964207369676e617475726500000000000000006044820152606401610a0f565b600281600481111561205f5761205f613339565b14156120ad5760405162461bcd60e51b815260206004820152601f60248201527f45434453413a20696e76616c6964207369676e6174757265206c656e677468006044820152606401610a0f565b60038160048111156120c1576120c1613339565b14156108c65760405162461bcd60e51b815260206004820152602260248201527f45434453413a20696e76616c6964207369676e6174757265202773272076616c604482015261756560f01b6064820152608401610a0f565b6000818152600183016020526040812054612161575081546001818101845560008481526020808220909301849055845484825282860190935260409020919091556107da565b5060006107da565b6060600080856001600160a01b031685604051612186919061334f565b600060405180830381855af49150503d80600081146121c1576040519150601f19603f3d011682016040523d82523d6000602084013e6121c6565b606091505b50915091506121d7868383876124a9565b9695505050505050565b60606121f0848460008561251f565b949350505050565b60606107da6001600160a01b03831660145b606060006122198360026130eb565b612224906002612cd7565b6001600160401b0381111561223b5761223b6128c2565b6040519080825280601f01601f191660200182016040528015612265576020820181803683370190505b509050600360fc1b8160008151811061228057612280613188565b60200101906001600160f81b031916908160001a905350600f60fb1b816001815181106122af576122af613188565b60200101906001600160f81b031916908160001a90535060006122d38460026130eb565b6122de906001612cd7565b90505b6001811115612356576f181899199a1a9b1b9c1cb0b131b232b360811b85600f166010811061231257612312613188565b1a60f81b82828151811061232857612328613188565b60200101906001600160f81b031916908160001a90535060049490941c9361234f8161336b565b90506122e1565b5083156115db5760405162461bcd60e51b815260206004820181905260248201527f537472696e67733a20686578206c656e67746820696e73756666696369656e746044820152606401610a0f565b6123ae81611df8565b6040516001600160a01b038216907fbc7cd75a20ee27fd9adebab32041f755214dbc6bffa90cc0225b39da2e5c2d3b90600090a250565b6000807f7fffffffffffffffffffffffffffffff5d576e7357a4501ddfe92f46681b20a083111561241c57506000905060036124a0565b6040805160008082526020820180845289905260ff881692820192909252606081018690526080810185905260019060a0016020604051602081039080840390855afa158015612470573d6000803e3d6000fd5b5050604051601f1901519150506001600160a01b038116612499576000600192509250506124a0565b9150600090505b94509492505050565b6060831561251557825161250e576001600160a01b0385163b61250e5760405162461bcd60e51b815260206004820152601d60248201527f416464726573733a2063616c6c20746f206e6f6e2d636f6e74726163740000006044820152606401610a0f565b50816121f0565b6121f083836125fa565b6060824710156125805760405162461bcd60e51b815260206004820152602660248201527f416464726573733a20696e73756666696369656e742062616c616e636520666f6044820152651c8818d85b1b60d21b6064820152608401610a0f565b600080866001600160a01b0316858760405161259c919061334f565b60006040518083038185875af1925050503d80600081146125d9576040519150601f19603f3d011682016040523d82523d6000602084013e6125de565b606091505b50915091506125ef878383876124a9565b979650505050505050565b81511561260a5781518083602001fd5b8060405162461bcd60e51b8152600401610a0f91906127b3565b82805461263090612c86565b90600052602060002090601f0160209004810192826126525760008555612698565b82601f1061266b5782800160ff19823516178555612698565b82800160010185558215612698579182015b8281111561269857823582559160200191906001019061267d565b506126a492915061271c565b5090565b8280546126b490612c86565b90600052602060002090601f0160209004810192826126d65760008555612698565b82601f106126ef57805160ff1916838001178555612698565b82800160010185558215612698579182015b82811115612698578251825591602001919060010190612701565b5b808211156126a4576000815560010161271d565b60006020828403121561274357600080fd5b81356001600160e01b0319811681146115db57600080fd5b60005b8381101561277657818101518382015260200161275e565b838111156117725750506000910152565b6000815180845261279f81602086016020860161275b565b601f01601f19169290920160200192915050565b6020815260006115db6020830184612787565b6000602082840312156127d857600080fd5b5035919050565b600080602083850312156127f257600080fd5b82356001600160401b038082111561280957600080fd5b818501915085601f83011261281d57600080fd5b81358181111561282c57600080fd5b86602082850101111561283e57600080fd5b60209290920196919550909350505050565b6001600160a01b03811681146108c657600080fd5b803561287081612850565b919050565b6000806040838503121561288857600080fd5b82359150602083013561289a81612850565b809150509250929050565b6000602082840312156128b757600080fd5b81356115db81612850565b634e487b7160e01b600052604160045260246000fd5b60405161012081016001600160401b03811182821017156128fb576128fb6128c2565b60405290565b604080519081016001600160401b03811182821017156128fb576128fb6128c2565b60405160a081016001600160401b03811182821017156128fb576128fb6128c2565b604051601f8201601f191681016001600160401b038111828210171561296d5761296d6128c2565b604052919050565b60006001600160401b0382111561298e5761298e6128c2565b50601f01601f191660200190565b60006129af6129aa84612975565b612945565b90508281528383830111156129c357600080fd5b828260208301376000602084830101529392505050565b600082601f8301126129eb57600080fd5b6115db8383356020850161299c565b600060208284031215612a0c57600080fd5b81356001600160401b0380821115612a2357600080fd5b908301906101208286031215612a3857600080fd5b612a406128d8565b612a4983612865565b8152612a5760208401612865565b6020820152612a6860408401612865565b6040820152612a7960608401612865565b6060820152612a8a60808401612865565b608082015260a083013582811115612aa157600080fd5b612aad878286016129da565b60a08301525060c083013582811115612ac557600080fd5b612ad1878286016129da565b60c08301525060e083013582811115612ae957600080fd5b612af5878286016129da565b60e0830152506101009283013592810192909252509392505050565b60008060408385031215612b2457600080fd5b8235612b2f81612850565b915060208301356001600160401b03811115612b4a57600080fd5b8301601f81018513612b5b57600080fd5b612b6a8582356020840161299c565b9150509250929050565b60008060408385031215612b8757600080fd5b50508035926020909101359150565b60008060208385031215612ba957600080fd5b82356001600160401b0380821115612bc057600080fd5b818501915085601f830112612bd457600080fd5b813581811115612be357600080fd5b8660208260051b850101111561283e57600080fd5b6000602080830181845280855180835260408601915060408160051b870101925083870160005b82811015612c4d57603f19888603018452612c3b858351612787565b94509285019290850190600101612c1f565b5092979650505050505050565b60008060408385031215612c6d57600080fd5b8235612c7881612850565b946020939093013593505050565b600181811c90821680612c9a57607f821691505b60208210811415612cbb57634e487b7160e01b600052602260045260246000fd5b50919050565b634e487b7160e01b600052601160045260246000fd5b60008219821115612cea57612cea612cc1565b500190565b60208152816020820152818360408301376000818301604090810191909152601f909201601f19160101919050565b6020808252602c908201527f46756e6374696f6e206d7573742062652063616c6c6564207468726f7567682060408201526b19195b1959d85d1958d85b1b60a21b606082015260800190565b6020808252602c908201527f46756e6374696f6e206d7573742062652063616c6c6564207468726f7567682060408201526b6163746976652070726f787960a01b606082015260800190565b6000612dc46129aa84612975565b9050828152838383011115612dd857600080fd5b6115db83602083018461275b565b600082601f830112612df757600080fd5b6115db83835160208501612db6565b60006020808385031215612e1957600080fd5b82516001600160401b0380821115612e3057600080fd5b9084019060408287031215612e4457600080fd5b612e4c612901565b825182811115612e5b57600080fd5b8301601f81018813612e6c57600080fd5b612e7a888251878401612db6565b8252508383015182811115612e8e57600080fd5b929092019160a08388031215612ea357600080fd5b612eab612923565b835181528484015185820152604084015183811115612ec957600080fd5b612ed589828701612de6565b604083015250606084015183811115612eed57600080fd5b612ef989828701612de6565b606083015250608084015183811115612f1157600080fd5b612f1d89828701612de6565b608083015250938101939093525090949350505050565b600080835481600182811c915080831680612f5057607f831692505b6020808410821415612f7057634e487b7160e01b86526022600452602486fd5b818015612f845760018114612f9557612fc2565b60ff19861689528489019650612fc2565b60008a81526020902060005b86811015612fba5781548b820152908501908301612fa1565b505084890196505b509498975050505050505050565b600060208284031215612fe257600080fd5b81516001600160401b0380821115612ff957600080fd5b908301906080828603121561300d57600080fd5b604051608081018181108382111715613028576130286128c2565b60405282518152602083015161303d81612850565b602082015260408301518281111561305457600080fd5b61306087828601612de6565b6040830152506060830151606082015280935050505092915050565b6000875161308e818460208c0161275b565b808301905087815286602082015285516130af816040840160208a0161275b565b85519101906130c581604084016020890161275b565b84519101906130db81604084016020880161275b565b0160400198975050505050505050565b600081600019048311821515161561310557613105612cc1565b500290565b60008261312757634e487b7160e01b600052601260045260246000fd5b500490565b60008282101561313e5761313e612cc1565b500390565b600060001982141561315757613157612cc1565b5060010190565b6000808585111561316e57600080fd5b8386111561317b57600080fd5b5050820193919092039150565b634e487b7160e01b600052603260045260246000fd5b6000808335601e198436030181126131b557600080fd5b8301803591506001600160401b038211156131cf57600080fd5b602001915036819003821315611fc557600080fd5b82848237600083820160008152835161320181836020880161275b565b0195945050505050565b60006020828403121561321d57600080fd5b5051919050565b6020808252602b908201527f496e697469616c697a61626c653a20636f6e7472616374206973206e6f74206960408201526a6e697469616c697a696e6760a81b606082015260800190565b6bffffffffffffffffffffffff1981358181169160148510156115815760149490940360031b84901b1690921692915050565b6000602082840312156132b457600080fd5b815180151581146115db57600080fd5b7f416363657373436f6e74726f6c3a206163636f756e74200000000000000000008152600083516132fc81601785016020880161275b565b7001034b99036b4b9b9b4b733903937b6329607d1b601791840191820152835161332d81602884016020880161275b565b01602801949350505050565b634e487b7160e01b600052602160045260246000fd5b6000825161336181846020870161275b565b9190910192915050565b60008161337a5761337a612cc1565b50600019019056fe360894a13ba1a3210667c828492db98dca3e2076cc3735a920a3ca505d382bbc416464726573733a206c6f772d6c6576656c2064656c65676174652063616c6c206661696c6564a2646970667358221220e86f3070ead1f236a3482e3e34277e6ddb1363ffe48b935fb75f2a473c158f5b64736f6c634300080c0033",
  "linkReferences": {},
  "deployedLinkReferences": {}
}